{
  "contractName": "AppointmentsManagement",
  "abi": [
    {
      "inputs": [],
      "payable": false,
      "stateMutability": "nonpayable",
      "type": "constructor"
    },
    {
      "anonymous": false,
      "inputs": [
        {
          "indexed": false,
          "internalType": "uint256",
          "name": "appointmentId",
          "type": "uint256"
        },
        {
          "indexed": false,
          "internalType": "address",
          "name": "patientAddress",
          "type": "address"
        },
        {
          "indexed": false,
          "internalType": "string",
          "name": "patientName",
          "type": "string"
        },
        {
          "indexed": false,
          "internalType": "uint256",
          "name": "dateTime",
          "type": "uint256"
        },
        {
          "indexed": false,
          "internalType": "enum AppointmentsManagement.SexType",
          "name": "sex",
          "type": "uint8"
        },
        {
          "indexed": false,
          "internalType": "enum AppointmentsManagement.AppointmentStat",
          "name": "aptStatus",
          "type": "uint8"
        }
      ],
      "name": "AppointmentBooking",
      "type": "event"
    },
    {
      "anonymous": false,
      "inputs": [
        {
          "indexed": false,
          "internalType": "uint256",
          "name": "appointmentId",
          "type": "uint256"
        },
        {
          "indexed": false,
          "internalType": "address",
          "name": "patientAddress",
          "type": "address"
        },
        {
          "indexed": false,
          "internalType": "string",
          "name": "patientName",
          "type": "string"
        },
        {
          "indexed": false,
          "internalType": "uint256",
          "name": "dateTime",
          "type": "uint256"
        },
        {
          "indexed": false,
          "internalType": "enum AppointmentsManagement.SexType",
          "name": "sex",
          "type": "uint8"
        },
        {
          "indexed": false,
          "internalType": "enum AppointmentsManagement.AppointmentStat",
          "name": "aptStatus",
          "type": "uint8"
        }
      ],
      "name": "AppointmentCancelling",
      "type": "event"
    },
    {
      "anonymous": false,
      "inputs": [
        {
          "indexed": false,
          "internalType": "uint256",
          "name": "appointmentId",
          "type": "uint256"
        },
        {
          "indexed": false,
          "internalType": "address",
          "name": "patientAddress",
          "type": "address"
        },
        {
          "indexed": false,
          "internalType": "string",
          "name": "patientName",
          "type": "string"
        },
        {
          "indexed": false,
          "internalType": "uint256",
          "name": "dateTime",
          "type": "uint256"
        },
        {
          "indexed": false,
          "internalType": "enum AppointmentsManagement.SexType",
          "name": "sex",
          "type": "uint8"
        },
        {
          "indexed": false,
          "internalType": "enum AppointmentsManagement.AppointmentStat",
          "name": "aptStatus",
          "type": "uint8"
        }
      ],
      "name": "AppointmentConfirming",
      "type": "event"
    },
    {
      "constant": true,
      "inputs": [],
      "name": "appointmentNumber",
      "outputs": [
        {
          "internalType": "uint256",
          "name": "",
          "type": "uint256"
        }
      ],
      "payable": false,
      "stateMutability": "view",
      "type": "function"
    },
    {
      "constant": true,
      "inputs": [
        {
          "internalType": "address",
          "name": "",
          "type": "address"
        }
      ],
      "name": "appointments",
      "outputs": [
        {
          "internalType": "uint256",
          "name": "appointmentId",
          "type": "uint256"
        },
        {
          "internalType": "address",
          "name": "patientAddress",
          "type": "address"
        },
        {
          "internalType": "string",
          "name": "patientName",
          "type": "string"
        },
        {
          "internalType": "uint256",
          "name": "dateTime",
          "type": "uint256"
        },
        {
          "internalType": "enum AppointmentsManagement.SexType",
          "name": "sex",
          "type": "uint8"
        },
        {
          "internalType": "enum AppointmentsManagement.AppointmentStat",
          "name": "aptStatus",
          "type": "uint8"
        }
      ],
      "payable": false,
      "stateMutability": "view",
      "type": "function"
    },
    {
      "constant": true,
      "inputs": [],
      "name": "hospitalName",
      "outputs": [
        {
          "internalType": "string",
          "name": "",
          "type": "string"
        }
      ],
      "payable": false,
      "stateMutability": "view",
      "type": "function"
    },
    {
      "constant": true,
      "inputs": [],
      "name": "hospitalOwner",
      "outputs": [
        {
          "internalType": "address payable",
          "name": "",
          "type": "address"
        }
      ],
      "payable": false,
      "stateMutability": "view",
      "type": "function"
    },
    {
      "constant": true,
      "inputs": [
        {
          "internalType": "uint256",
          "name": "",
          "type": "uint256"
        }
      ],
      "name": "patients",
      "outputs": [
        {
          "internalType": "address",
          "name": "",
          "type": "address"
        }
      ],
      "payable": false,
      "stateMutability": "view",
      "type": "function"
    },
    {
      "constant": false,
      "inputs": [
        {
          "internalType": "string",
          "name": "_patientName",
          "type": "string"
        },
        {
          "internalType": "uint256",
          "name": "_dateTime",
          "type": "uint256"
        },
        {
          "internalType": "enum AppointmentsManagement.SexType",
          "name": "_sex",
          "type": "uint8"
        }
      ],
      "name": "createAppointment",
      "outputs": [],
      "payable": true,
      "stateMutability": "payable",
      "type": "function"
    },
    {
      "constant": false,
      "inputs": [
        {
          "internalType": "uint256",
          "name": "_appointmentNumber",
          "type": "uint256"
        }
      ],
      "name": "cancelAppointmnet",
      "outputs": [],
      "payable": false,
      "stateMutability": "nonpayable",
      "type": "function"
    },
    {
      "constant": false,
      "inputs": [
        {
          "internalType": "uint256",
          "name": "_appointmentNumber",
          "type": "uint256"
        }
      ],
      "name": "confirmAppointment",
      "outputs": [],
      "payable": false,
      "stateMutability": "nonpayable",
      "type": "function"
    }
  ],
  "bytecode": "0x608060405260006002553480156200001657600080fd5b506040518060400160405280601781526020017f5542432050617469656e74204170706f696e746d656e740000000000000000008152506000908051906020019062000064929190620000ac565b5033600160006101000a81548173ffffffffffffffffffffffffffffffffffffffff021916908373ffffffffffffffffffffffffffffffffffffffff1602179055506200015b565b828054600181600116156101000203166002900490600052602060002090601f016020900481019282601f10620000ef57805160ff191683800117855562000120565b8280016001018555821562000120579182015b828111156200011f57825182559160200191906001019062000102565b5b5090506200012f919062000133565b5090565b6200015891905b80821115620001545760008160009055506001016200013a565b5090565b90565b611f66806200016b6000396000f3fe60806040526004361061007b5760003560e01c806393119a831161004e57806393119a8314610352578063cefead95146103cd578063d4a1b76814610408578063f1d4d5011461045f5761007b565b80631cae99e21461008057806368032c54146101105780637a7d8f631461014b57806387a739a514610280575b600080fd5b34801561008c57600080fd5b5061009561048a565b6040518080602001828103825283818151815260200191508051906020019080838360005b838110156100d55780820151818401526020810190506100ba565b50505050905090810190601f1680156101025780820380516001836020036101000a031916815260200191505b509250505060405180910390f35b34801561011c57600080fd5b506101496004803603602081101561013357600080fd5b8101908080359060200190929190505050610528565b005b34801561015757600080fd5b5061019a6004803603602081101561016e57600080fd5b81019080803573ffffffffffffffffffffffffffffffffffffffff169060200190929190505050610b8e565b604051808781526020018673ffffffffffffffffffffffffffffffffffffffff1673ffffffffffffffffffffffffffffffffffffffff168152602001806020018581526020018460018111156101ec57fe5b60ff16815260200183600281111561020057fe5b60ff168152602001828103825286818151815260200191508051906020019080838360005b83811015610240578082015181840152602081019050610225565b50505050905090810190601f16801561026d5780820380516001836020036101000a031916815260200191505b5097505050505050505060405180910390f35b6103506004803603606081101561029657600080fd5b81019080803590602001906401000000008111156102b357600080fd5b8201836020820111156102c557600080fd5b803590602001918460018302840111640100000000831117156102e757600080fd5b91908080601f016020809104026020016040519081016040528093929190818152602001838380828437600081840152601f19601f82011690508083019250505050505050919291929080359060200190929190803560ff169060200190929190505050610c9c565b005b34801561035e57600080fd5b5061038b6004803603602081101561037557600080fd5b8101908080359060200190929190505050611383565b604051808273ffffffffffffffffffffffffffffffffffffffff1673ffffffffffffffffffffffffffffffffffffffff16815260200191505060405180910390f35b3480156103d957600080fd5b50610406600480360360208110156103f057600080fd5b81019080803590602001909291905050506113bf565b005b34801561041457600080fd5b5061041d611ce4565b604051808273ffffffffffffffffffffffffffffffffffffffff1673ffffffffffffffffffffffffffffffffffffffff16815260200191505060405180910390f35b34801561046b57600080fd5b50610474611d0a565b6040518082815260200191505060405180910390f35b60008054600181600116156101000203166002900480601f0160208091040260200160405190810160405280929190818152602001828054600181600116156101000203166002900480156105205780601f106104f557610100808354040283529160200191610520565b820191906000526020600020905b81548152906001019060200180831161050357829003601f168201915b505050505081565b610530611d10565b600460003373ffffffffffffffffffffffffffffffffffffffff1673ffffffffffffffffffffffffffffffffffffffff1681526020019081526020016000206040518060c0016040529081600082015481526020016001820160009054906101000a900473ffffffffffffffffffffffffffffffffffffffff1673ffffffffffffffffffffffffffffffffffffffff1673ffffffffffffffffffffffffffffffffffffffff168152602001600282018054600181600116156101000203166002900480601f0160208091040260200160405190810160405280929190818152602001828054600181600116156101000203166002900480156106735780601f1061064857610100808354040283529160200191610673565b820191906000526020600020905b81548152906001019060200180831161065657829003601f168201915b50505050508152602001600382015481526020016004820160009054906101000a900460ff1660018111156106a457fe5b60018111156106af57fe5b81526020016004820160019054906101000a900460ff1660028111156106d157fe5b60028111156106dc57fe5b815250509050600081600001511180156106fc5750600254816000015111155b61076e576040517f08c379a000000000000000000000000000000000000000000000000000000000815260040180806020018281038252601e8152602001807f4170706f696e746d656e7449442073686f756c642062652076616c696421000081525060200191505060405180910390fd5b818160000151146107ca576040517f08c379a0000000000000000000000000000000000000000000000000000000008152600401808060200182810382526027815260200180611eb46027913960400191505060405180910390fd5b600160028111156107d757fe5b8160a0015160028111156107e757fe5b141561083e576040517f08c379a000000000000000000000000000000000000000000000000000000000815260040180806020018281038252602c815260200180611f06602c913960400191505060405180910390fd5b60028081111561084a57fe5b8160a00151600281111561085a57fe5b14156108b1576040517f08c379a000000000000000000000000000000000000000000000000000000000815260040180806020018281038252602c815260200180611e18602c913960400191505060405180910390fd5b600060028111156108be57fe5b8160a0015160028111156108ce57fe5b14610941576040517f08c379a000000000000000000000000000000000000000000000000000000000815260040180806020018281038252601e8152602001807f4170706f696e746d6e65742073686f756c64206265206372656174656421000081525060200191505060405180910390fd5b60018160a00190600281111561095357fe5b9081600281111561096057fe5b8152505080600460003373ffffffffffffffffffffffffffffffffffffffff1673ffffffffffffffffffffffffffffffffffffffff1681526020019081526020016000206000820151816000015560208201518160010160006101000a81548173ffffffffffffffffffffffffffffffffffffffff021916908373ffffffffffffffffffffffffffffffffffffffff1602179055506040820151816002019080519060200190610a11929190611d72565b506060820151816003015560808201518160040160006101000a81548160ff02191690836001811115610a4057fe5b021790555060a08201518160040160016101000a81548160ff02191690836002811115610a6957fe5b02179055509050507fc2d90836f1a912dcc3e052efae1a0d36a4f5937af317871ffe3b17040f912bd582338360400151846060015185608001516001604051808781526020018673ffffffffffffffffffffffffffffffffffffffff1673ffffffffffffffffffffffffffffffffffffffff16815260200180602001858152602001846001811115610af757fe5b60ff168152602001836002811115610b0b57fe5b60ff168152602001828103825286818151815260200191508051906020019080838360005b83811015610b4b578082015181840152602081019050610b30565b50505050905090810190601f168015610b785780820380516001836020036101000a031916815260200191505b5097505050505050505060405180910390a15050565b60046020528060005260406000206000915090508060000154908060010160009054906101000a900473ffffffffffffffffffffffffffffffffffffffff1690806002018054600181600116156101000203166002900480601f016020809104026020016040519081016040528092919081815260200182805460018160011615610100020316600290048015610c665780601f10610c3b57610100808354040283529160200191610c66565b820191906000526020600020905b815481529060010190602001808311610c4957829003601f168201915b5050505050908060030154908060040160009054906101000a900460ff16908060040160019054906101000a900460ff16905086565b6000835111610d13576040517f08c379a000000000000000000000000000000000000000000000000000000000815260040180806020018281038252601b8152602001807f50617469656e742773206e616d6520697320726571756972656421000000000081525060200191505060405180910390fd5b428211610d88576040517f08c379a00000000000000000000000000000000000000000000000000000000081526004018080602001828103825260188152602001807f506c65617365207072766964652076616c69642064617465000000000000000081525060200191505060405180910390fd5b6000670de0b6b3a7640000905080341015610e0b576040517f08c379a00000000000000000000000000000000000000000000000000000000081526004018080602001828103825260198152602001807f5061796d656e742073686f756c6420626520656e6f756768210000000000000081525060200191505060405180910390fd5b6060600080905060008090505b600380549050811015610fc9573373ffffffffffffffffffffffffffffffffffffffff166004600060038481548110610e4d57fe5b9060005260206000200160009054906101000a900473ffffffffffffffffffffffffffffffffffffffff1673ffffffffffffffffffffffffffffffffffffffff1673ffffffffffffffffffffffffffffffffffffffff16815260200190815260200160002060010160009054906101000a900473ffffffffffffffffffffffffffffffffffffffff1673ffffffffffffffffffffffffffffffffffffffff16148015610f95575060006002811115610f0157fe5b6004600060038481548110610f1257fe5b9060005260206000200160009054906101000a900473ffffffffffffffffffffffffffffffffffffffff1673ffffffffffffffffffffffffffffffffffffffff1673ffffffffffffffffffffffffffffffffffffffff16815260200190815260200160002060040160019054906101000a900460ff166002811115610f9357fe5b145b15610fbc5780838381518110610fa757fe5b60200260200101818152505081806001019250505b8080600101915050610e18565b5060008114611023576040517f08c379a000000000000000000000000000000000000000000000000000000000815260040180806020018281038252602b815260200180611edb602b913960400191505060405180910390fd5b60026000815480929190600101919050555060033390806001815401808255809150509060018203906000526020600020016000909192909190916101000a81548173ffffffffffffffffffffffffffffffffffffffff021916908373ffffffffffffffffffffffffffffffffffffffff160217905550506040518060c0016040528060025481526020013373ffffffffffffffffffffffffffffffffffffffff1681526020018781526020018681526020018560018111156110e257fe5b8152602001600060028111156110f457fe5b815250600460003373ffffffffffffffffffffffffffffffffffffffff1673ffffffffffffffffffffffffffffffffffffffff1681526020019081526020016000206000820151816000015560208201518160010160006101000a81548173ffffffffffffffffffffffffffffffffffffffff021916908373ffffffffffffffffffffffffffffffffffffffff16021790555060408201518160020190805190602001906111a3929190611d72565b506060820151816003015560808201518160040160006101000a81548160ff021916908360018111156111d257fe5b021790555060a08201518160040160016101000a81548160ff021916908360028111156111fb57fe5b0217905550905050600160009054906101000a900473ffffffffffffffffffffffffffffffffffffffff1673ffffffffffffffffffffffffffffffffffffffff166108fc349081150290604051600060405180830381858888f1935050505015801561126b573d6000803e3d6000fd5b507fd7d35a258e7880616a40391d0010f7a27b1c440feff9b04ad050015fd51b4a0b600254338888886000604051808781526020018673ffffffffffffffffffffffffffffffffffffffff1673ffffffffffffffffffffffffffffffffffffffff168152602001806020018581526020018460018111156112e857fe5b60ff1681526020018360028111156112fc57fe5b60ff168152602001828103825286818151815260200191508051906020019080838360005b8381101561133c578082015181840152602081019050611321565b50505050905090810190601f1680156113695780820380516001836020036101000a031916815260200191505b5097505050505050505060405180910390a1505050505050565b6003818154811061139057fe5b906000526020600020016000915054906101000a900473ffffffffffffffffffffffffffffffffffffffff1681565b600160009054906101000a900473ffffffffffffffffffffffffffffffffffffffff1673ffffffffffffffffffffffffffffffffffffffff163373ffffffffffffffffffffffffffffffffffffffff1614611465576040517f08c379a000000000000000000000000000000000000000000000000000000000815260040180806020018281038252602e815260200180611e44602e913960400191505060405180910390fd5b60008111801561147757506002548111155b6114e9576040517f08c379a000000000000000000000000000000000000000000000000000000000815260040180806020018281038252601e8152602001807f4170706f696e746d656e7449442073686f756c642062652076616c696421000081525060200191505060405180910390fd5b600080600090505b6003805490508110156116295782600460006003848154811061151057fe5b9060005260206000200160009054906101000a900473ffffffffffffffffffffffffffffffffffffffff1673ffffffffffffffffffffffffffffffffffffffff1673ffffffffffffffffffffffffffffffffffffffff16815260200190815260200160002060000154141561161c57600460006003838154811061159057fe5b9060005260206000200160009054906101000a900473ffffffffffffffffffffffffffffffffffffffff1673ffffffffffffffffffffffffffffffffffffffff1673ffffffffffffffffffffffffffffffffffffffff16815260200190815260200160002060010160009054906101000a900473ffffffffffffffffffffffffffffffffffffffff1691505b80806001019150506114f1565b50611632611d10565b600460008373ffffffffffffffffffffffffffffffffffffffff1673ffffffffffffffffffffffffffffffffffffffff1681526020019081526020016000206040518060c0016040529081600082015481526020016001820160009054906101000a900473ffffffffffffffffffffffffffffffffffffffff1673ffffffffffffffffffffffffffffffffffffffff1673ffffffffffffffffffffffffffffffffffffffff168152602001600282018054600181600116156101000203166002900480601f0160208091040260200160405190810160405280929190818152602001828054600181600116156101000203166002900480156117755780601f1061174a57610100808354040283529160200191611775565b820191906000526020600020905b81548152906001019060200180831161175857829003601f168201915b50505050508152602001600382015481526020016004820160009054906101000a900460ff1660018111156117a657fe5b60018111156117b157fe5b81526020016004820160019054906101000a900460ff1660028111156117d357fe5b60028111156117de57fe5b815250509050600081602001519050600160028111156117fa57fe5b8260a00151600281111561180a57fe5b1415611861576040517f08c379a0000000000000000000000000000000000000000000000000000000008152600401808060200182810382526021815260200180611e936021913960400191505060405180910390fd5b60028081111561186d57fe5b8260a00151600281111561187d57fe5b14156118d4576040517f08c379a0000000000000000000000000000000000000000000000000000000008152600401808060200182810382526021815260200180611e726021913960400191505060405180910390fd5b600060028111156118e157fe5b8260a0015160028111156118f157fe5b14611964576040517f08c379a000000000000000000000000000000000000000000000000000000000815260040180806020018281038252601e8152602001807f4170706f696e746d6e65742073686f756c64206265206372656174656421000081525060200191505060405180910390fd5b60028260a00190600281111561197657fe5b9081600281111561198357fe5b8152505081600460008373ffffffffffffffffffffffffffffffffffffffff1673ffffffffffffffffffffffffffffffffffffffff1681526020019081526020016000206000820151816000015560208201518160010160006101000a81548173ffffffffffffffffffffffffffffffffffffffff021916908373ffffffffffffffffffffffffffffffffffffffff1602179055506040820151816002019080519060200190611a34929190611d72565b506060820151816003015560808201518160040160006101000a81548160ff02191690836001811115611a6357fe5b021790555060a08201518160040160016101000a81548160ff02191690836002811115611a8c57fe5b02179055509050507f7b7803ae1954d161d67faddb7406404720d9764571076861ffe4cc7abf5c035a8484600460008573ffffffffffffffffffffffffffffffffffffffff1673ffffffffffffffffffffffffffffffffffffffff168152602001908152602001600020600201600460008673ffffffffffffffffffffffffffffffffffffffff1673ffffffffffffffffffffffffffffffffffffffff16815260200190815260200160002060030154600460008773ffffffffffffffffffffffffffffffffffffffff1673ffffffffffffffffffffffffffffffffffffffff16815260200190815260200160002060040160009054906101000a900460ff16600460008873ffffffffffffffffffffffffffffffffffffffff1673ffffffffffffffffffffffffffffffffffffffff16815260200190815260200160002060040160019054906101000a900460ff16604051808781526020018673ffffffffffffffffffffffffffffffffffffffff1673ffffffffffffffffffffffffffffffffffffffff16815260200180602001858152602001846001811115611c2e57fe5b60ff168152602001836002811115611c4257fe5b60ff168152602001828103825286818154600181600116156101000203166002900481526020019150805460018160011615610100020316600290048015611ccb5780601f10611ca057610100808354040283529160200191611ccb565b820191906000526020600020905b815481529060010190602001808311611cae57829003601f168201915b505097505050505050505060405180910390a150505050565b600160009054906101000a900473ffffffffffffffffffffffffffffffffffffffff1681565b60025481565b6040518060c0016040528060008152602001600073ffffffffffffffffffffffffffffffffffffffff168152602001606081526020016000815260200160006001811115611d5a57fe5b815260200160006002811115611d6c57fe5b81525090565b828054600181600116156101000203166002900490600052602060002090601f016020900481019282601f10611db357805160ff1916838001178555611de1565b82800160010185558215611de1579182015b82811115611de0578251825591602001919060010190611dc5565b5b509050611dee9190611df2565b5090565b611e1491905b80821115611e10576000816000905550600101611df8565b5090565b9056fe4170706f696e746d6e65742073686f756c64206e6f7420626520616c726561647920636f6e6669726d6564214f6e6c7920646f63746f722f6f776e65722063616e20636f6e6669726d20746865206170706f696e746d656e74214170706f696e746d6e657420697320616c726561647920636f6e6669726d6564214170706f696e746d6e657420697320616c72656164792063616e63656c6c6564214170706f696e746d656e744944206973206e6f7420637265617465642062792063616c6c657221596f7520616c7265616479206861766520616e206170706f696e746d656e74207769746820646f63746f724170706f696e746d6e65742073686f756c64206e6f7420626520616c72656164792063616e63656c6c656421a265627a7a72315820f07c3960e036a271dc772df3dd598b27de21032d99cd0f2f2ae941ced3a764d264736f6c63430005100032",
  "source": "\r\npragma solidity ^0.5.0;\r\n\r\ncontract AppointmentsManagement{\r\n    enum  SexType { MALE, FEMALE }\r\n    enum AppointmentStat { CREATED, CANCELLED, CONFIRMED }\r\n    string public hospitalName;\r\n    address payable public hospitalOwner;\r\n    uint public appointmentNumber = 0;\r\n    address[] public patients;\r\n    struct Appointment{\r\n        uint appointmentId;\r\n        address patientAddress;\r\n        string patientName;\r\n        uint dateTime;\r\n        SexType sex;\r\n        AppointmentStat aptStatus;\r\n    }\r\n\r\n    mapping(address => Appointment) public appointments;\r\n\r\n    event AppointmentBooking(\r\n        uint appointmentId,\r\n        address patientAddress,\r\n        string patientName,\r\n        uint dateTime,\r\n        SexType sex,\r\n        AppointmentStat aptStatus\r\n    );\r\n\r\n    event AppointmentCancelling(\r\n        uint appointmentId,\r\n        address patientAddress,\r\n        string patientName,\r\n        uint dateTime,\r\n        SexType sex,\r\n        AppointmentStat aptStatus\r\n    );\r\n\r\n    event AppointmentConfirming(\r\n        uint appointmentId,\r\n        address patientAddress,\r\n        string patientName,\r\n        uint dateTime,\r\n        SexType sex,\r\n        AppointmentStat aptStatus\r\n    );\r\n\r\n    constructor() public {\r\n        hospitalName = \"UBC Patient Appointment\";\r\n        hospitalOwner = msg.sender;\r\n    }\r\n\r\n    function createAppointment(string memory _patientName, uint _dateTime, SexType _sex) public payable {\r\n        require(bytes(_patientName).length > 0, \"Patient's name is required!\");\r\n        require(_dateTime > now, \"Please prvide valid date\");\r\n        uint value = 1000000000000000000;\r\n        require(msg.value >= value, \"Payment should be enough!\");\r\n        uint256[] memory results;\r\n        uint256 count = 0;\r\n        \r\n        for (uint256 i = 0; i < patients.length; i++) {\r\n            if((appointments[patients[i]].patientAddress == msg.sender) && (appointments[patients[i]].aptStatus == AppointmentStat.CREATED))\r\n            {\r\n                results[count] = i;\r\n                count++;\r\n            }\r\n        }\r\n        require(count == 0, \"You already have an appointment with doctor\");\r\n        appointmentNumber++;\r\n        patients.push(msg.sender);\r\n        appointments[msg.sender] = Appointment(appointmentNumber, msg.sender, _patientName, _dateTime, _sex, AppointmentStat.CREATED);\r\n        hospitalOwner.transfer(msg.value);\r\n\r\n        \r\n        emit AppointmentBooking(appointmentNumber, msg.sender, _patientName, _dateTime, _sex, AppointmentStat.CREATED);\r\n    }\r\n\r\n    function cancelAppointmnet(uint _appointmentNumber) public {\r\n        Appointment memory _apt = appointments[msg.sender];\r\n        require(_apt.appointmentId > 0 && _apt.appointmentId <= appointmentNumber, \"AppointmentID should be valid!\");\r\n        require(_apt.appointmentId == _appointmentNumber, \"AppointmentID is not created by caller!\");\r\n        require(_apt.aptStatus != AppointmentStat.CANCELLED, \"Appointmnet should not be already cancelled!\");\r\n        require(_apt.aptStatus != AppointmentStat.CONFIRMED, \"Appointmnet should not be already confirmed!\");\r\n        require(_apt.aptStatus == AppointmentStat.CREATED, \"Appointmnet should be created!\");\r\n        //require(_apt.patientAddress != msg.sender, \"Appointmenet was created by somebody else and only that person can cancel!\");\r\n        _apt.aptStatus = AppointmentStat.CANCELLED;\r\n        appointments[msg.sender] = _apt;\r\n        emit AppointmentCancelling(_appointmentNumber, msg.sender, _apt.patientName, _apt.dateTime, _apt.sex, AppointmentStat.CANCELLED);\r\n    }\r\n\r\n    function confirmAppointment(uint _appointmentNumber) public {\r\n        \r\n        \r\n        require(msg.sender == hospitalOwner, \"Only doctor/owner can confirm the appointment!\");\r\n        require(_appointmentNumber > 0 && _appointmentNumber <= appointmentNumber, \"AppointmentID should be valid!\");\r\n        \r\n        address patient;\r\n\r\n        for (uint256 i = 0; i < patients.length; i++) {\r\n            if((appointments[patients[i]].appointmentId == _appointmentNumber))\r\n            {\r\n                patient = appointments[patients[i]].patientAddress;\r\n            }\r\n        }\r\n\r\n        Appointment memory _apt = appointments[patient];\r\n        address patientAdress = _apt.patientAddress;\r\n        require(_apt.aptStatus != AppointmentStat.CANCELLED, \"Appointmnet is already cancelled!\");\r\n        require(_apt.aptStatus != AppointmentStat.CONFIRMED, \"Appointmnet is already confirmed!\");\r\n        require(_apt.aptStatus == AppointmentStat.CREATED, \"Appointmnet should be created!\");\r\n\r\n        _apt.aptStatus = AppointmentStat.CONFIRMED;\r\n        appointments[patientAdress] = _apt;\r\n        emit AppointmentConfirming(_appointmentNumber, patient , appointments[patientAdress].patientName, appointments[patientAdress].dateTime, appointments[patientAdress].sex, appointments[patientAdress].aptStatus);\r\n    }\r\n}",
  "sourcePath": "D:\\eece571g\\week10\\EthbayDappReact\\src\\contracts\\appointmnets.sol",
  "compiler": {
    "name": "solc",
    "version": "0.5.16+commit.9c3226ce.Emscripten.clang"
  },
  "schemaVersion": "3.0.23",
  "updatedAt": "2020-03-20T00:00:14.612Z",
  "devdoc": {
    "methods": {}
  },
  "userdoc": {
    "methods": {}
  }
}