{
  "contractName": "MovieReview",
  "abi": [
    {
      "inputs": [],
      "payable": false,
      "stateMutability": "nonpayable",
      "type": "constructor"
    },
    {
      "anonymous": false,
      "inputs": [
        {
          "indexed": false,
          "internalType": "uint256",
          "name": "cid",
          "type": "uint256"
        },
        {
          "indexed": false,
          "internalType": "uint256",
          "name": "userId",
          "type": "uint256"
        },
        {
          "indexed": false,
          "internalType": "uint256",
          "name": "movieId",
          "type": "uint256"
        },
        {
          "indexed": false,
          "internalType": "uint256",
          "name": "checkInTime",
          "type": "uint256"
        }
      ],
      "name": "CheckInDone",
      "type": "event"
    },
    {
      "anonymous": false,
      "inputs": [
        {
          "indexed": false,
          "internalType": "uint256",
          "name": "cid",
          "type": "uint256"
        },
        {
          "indexed": false,
          "internalType": "uint256",
          "name": "userId",
          "type": "uint256"
        },
        {
          "indexed": false,
          "internalType": "uint256",
          "name": "movieId",
          "type": "uint256"
        },
        {
          "indexed": false,
          "internalType": "uint256",
          "name": "checkInTime",
          "type": "uint256"
        },
        {
          "indexed": false,
          "internalType": "uint256",
          "name": "checkOutTime",
          "type": "uint256"
        }
      ],
      "name": "CheckOutDone",
      "type": "event"
    },
    {
      "anonymous": false,
      "inputs": [
        {
          "indexed": false,
          "internalType": "uint256",
          "name": "id",
          "type": "uint256"
        },
        {
          "indexed": false,
          "internalType": "uint256",
          "name": "locationId",
          "type": "uint256"
        },
        {
          "indexed": false,
          "internalType": "string",
          "name": "locationName",
          "type": "string"
        },
        {
          "indexed": false,
          "internalType": "string",
          "name": "name",
          "type": "string"
        },
        {
          "indexed": false,
          "internalType": "bool",
          "name": "active",
          "type": "bool"
        }
      ],
      "name": "CinemaHallAdded",
      "type": "event"
    },
    {
      "anonymous": false,
      "inputs": [
        {
          "indexed": false,
          "internalType": "uint256",
          "name": "id",
          "type": "uint256"
        },
        {
          "indexed": false,
          "internalType": "uint256",
          "name": "locationId",
          "type": "uint256"
        },
        {
          "indexed": false,
          "internalType": "string",
          "name": "name",
          "type": "string"
        },
        {
          "indexed": false,
          "internalType": "bool",
          "name": "active",
          "type": "bool"
        }
      ],
      "name": "CinemaHallDeleted",
      "type": "event"
    },
    {
      "anonymous": false,
      "inputs": [
        {
          "indexed": false,
          "internalType": "uint256",
          "name": "id",
          "type": "uint256"
        },
        {
          "indexed": false,
          "internalType": "string",
          "name": "name",
          "type": "string"
        },
        {
          "indexed": false,
          "internalType": "bool",
          "name": "active",
          "type": "bool"
        }
      ],
      "name": "LocationAdded",
      "type": "event"
    },
    {
      "anonymous": false,
      "inputs": [
        {
          "indexed": false,
          "internalType": "uint256",
          "name": "id",
          "type": "uint256"
        },
        {
          "indexed": false,
          "internalType": "string",
          "name": "name",
          "type": "string"
        },
        {
          "indexed": false,
          "internalType": "bool",
          "name": "active",
          "type": "bool"
        }
      ],
      "name": "LocationDeleted",
      "type": "event"
    },
    {
      "anonymous": false,
      "inputs": [
        {
          "indexed": false,
          "internalType": "uint256",
          "name": "id",
          "type": "uint256"
        },
        {
          "indexed": false,
          "internalType": "uint256",
          "name": "cinemaHallId",
          "type": "uint256"
        },
        {
          "indexed": false,
          "internalType": "string",
          "name": "cinemaHallName",
          "type": "string"
        },
        {
          "indexed": false,
          "internalType": "string",
          "name": "name",
          "type": "string"
        },
        {
          "indexed": false,
          "internalType": "uint256",
          "name": "startDate",
          "type": "uint256"
        },
        {
          "indexed": false,
          "internalType": "uint256",
          "name": "endDate",
          "type": "uint256"
        },
        {
          "indexed": false,
          "internalType": "uint256",
          "name": "startTime",
          "type": "uint256"
        },
        {
          "indexed": false,
          "internalType": "uint256",
          "name": "totalTime",
          "type": "uint256"
        },
        {
          "indexed": false,
          "internalType": "bool",
          "name": "active",
          "type": "bool"
        }
      ],
      "name": "MovieAdded",
      "type": "event"
    },
    {
      "anonymous": false,
      "inputs": [
        {
          "indexed": false,
          "internalType": "uint256",
          "name": "bookingId",
          "type": "uint256"
        },
        {
          "indexed": false,
          "internalType": "uint256",
          "name": "userId",
          "type": "uint256"
        },
        {
          "indexed": false,
          "internalType": "uint256",
          "name": "movieId",
          "type": "uint256"
        },
        {
          "indexed": false,
          "internalType": "uint256",
          "name": "cinemaHallID",
          "type": "uint256"
        },
        {
          "indexed": false,
          "internalType": "uint256",
          "name": "date",
          "type": "uint256"
        },
        {
          "indexed": false,
          "internalType": "uint256",
          "name": "startTime",
          "type": "uint256"
        },
        {
          "indexed": false,
          "internalType": "bool",
          "name": "cancelled",
          "type": "bool"
        }
      ],
      "name": "MovieBooked",
      "type": "event"
    },
    {
      "anonymous": false,
      "inputs": [
        {
          "indexed": false,
          "internalType": "uint256",
          "name": "bookingId",
          "type": "uint256"
        },
        {
          "indexed": false,
          "internalType": "uint256",
          "name": "userId",
          "type": "uint256"
        },
        {
          "indexed": false,
          "internalType": "uint256",
          "name": "movieId",
          "type": "uint256"
        },
        {
          "indexed": false,
          "internalType": "uint256",
          "name": "date",
          "type": "uint256"
        },
        {
          "indexed": false,
          "internalType": "bool",
          "name": "cancelled",
          "type": "bool"
        }
      ],
      "name": "MovieBookingCancelled",
      "type": "event"
    },
    {
      "anonymous": false,
      "inputs": [
        {
          "indexed": false,
          "internalType": "uint256",
          "name": "id",
          "type": "uint256"
        },
        {
          "indexed": false,
          "internalType": "uint256",
          "name": "cinemaHallId",
          "type": "uint256"
        },
        {
          "indexed": false,
          "internalType": "string",
          "name": "name",
          "type": "string"
        },
        {
          "indexed": false,
          "internalType": "uint256",
          "name": "startDate",
          "type": "uint256"
        },
        {
          "indexed": false,
          "internalType": "uint256",
          "name": "endDate",
          "type": "uint256"
        },
        {
          "indexed": false,
          "internalType": "uint256",
          "name": "startTime",
          "type": "uint256"
        },
        {
          "indexed": false,
          "internalType": "uint256",
          "name": "totalTime",
          "type": "uint256"
        },
        {
          "indexed": false,
          "internalType": "bool",
          "name": "active",
          "type": "bool"
        }
      ],
      "name": "MovieDeleted",
      "type": "event"
    },
    {
      "anonymous": false,
      "inputs": [
        {
          "indexed": false,
          "internalType": "uint256",
          "name": "id",
          "type": "uint256"
        },
        {
          "indexed": false,
          "internalType": "uint256",
          "name": "cinemaHallId",
          "type": "uint256"
        },
        {
          "indexed": false,
          "internalType": "string",
          "name": "name",
          "type": "string"
        },
        {
          "indexed": false,
          "internalType": "uint256",
          "name": "startDate",
          "type": "uint256"
        },
        {
          "indexed": false,
          "internalType": "uint256",
          "name": "endDate",
          "type": "uint256"
        },
        {
          "indexed": false,
          "internalType": "uint256",
          "name": "startTime",
          "type": "uint256"
        },
        {
          "indexed": false,
          "internalType": "uint256",
          "name": "totalTime",
          "type": "uint256"
        },
        {
          "indexed": false,
          "internalType": "bool",
          "name": "active",
          "type": "bool"
        }
      ],
      "name": "MovieUpdated",
      "type": "event"
    },
    {
      "anonymous": false,
      "inputs": [
        {
          "indexed": false,
          "internalType": "uint256",
          "name": "id",
          "type": "uint256"
        },
        {
          "indexed": false,
          "internalType": "string",
          "name": "name",
          "type": "string"
        },
        {
          "indexed": false,
          "internalType": "string",
          "name": "email",
          "type": "string"
        },
        {
          "indexed": false,
          "internalType": "string",
          "name": "password",
          "type": "string"
        }
      ],
      "name": "NewUserAdded",
      "type": "event"
    },
    {
      "anonymous": false,
      "inputs": [
        {
          "indexed": false,
          "internalType": "uint256",
          "name": "reviewId",
          "type": "uint256"
        },
        {
          "indexed": false,
          "internalType": "uint256",
          "name": "userId",
          "type": "uint256"
        },
        {
          "indexed": false,
          "internalType": "uint256",
          "name": "movieId",
          "type": "uint256"
        },
        {
          "indexed": false,
          "internalType": "uint256",
          "name": "rating",
          "type": "uint256"
        },
        {
          "indexed": false,
          "internalType": "string",
          "name": "review",
          "type": "string"
        }
      ],
      "name": "ReviewAdded",
      "type": "event"
    },
    {
      "constant": true,
      "inputs": [],
      "name": "bookingNumber",
      "outputs": [
        {
          "internalType": "uint256",
          "name": "",
          "type": "uint256"
        }
      ],
      "payable": false,
      "stateMutability": "view",
      "type": "function"
    },
    {
      "constant": true,
      "inputs": [],
      "name": "checkInCheckOutNumber",
      "outputs": [
        {
          "internalType": "uint256",
          "name": "",
          "type": "uint256"
        }
      ],
      "payable": false,
      "stateMutability": "view",
      "type": "function"
    },
    {
      "constant": true,
      "inputs": [],
      "name": "cinemaHallNumber",
      "outputs": [
        {
          "internalType": "uint256",
          "name": "",
          "type": "uint256"
        }
      ],
      "payable": false,
      "stateMutability": "view",
      "type": "function"
    },
    {
      "constant": true,
      "inputs": [
        {
          "internalType": "uint256",
          "name": "",
          "type": "uint256"
        }
      ],
      "name": "cinemaHalls",
      "outputs": [
        {
          "internalType": "uint256",
          "name": "id",
          "type": "uint256"
        },
        {
          "internalType": "uint256",
          "name": "locationId",
          "type": "uint256"
        },
        {
          "internalType": "string",
          "name": "locationName",
          "type": "string"
        },
        {
          "internalType": "string",
          "name": "name",
          "type": "string"
        },
        {
          "internalType": "bool",
          "name": "active",
          "type": "bool"
        }
      ],
      "payable": false,
      "stateMutability": "view",
      "type": "function"
    },
    {
      "constant": true,
      "inputs": [],
      "name": "companyName",
      "outputs": [
        {
          "internalType": "string",
          "name": "",
          "type": "string"
        }
      ],
      "payable": false,
      "stateMutability": "view",
      "type": "function"
    },
    {
      "constant": true,
      "inputs": [],
      "name": "locationNumber",
      "outputs": [
        {
          "internalType": "uint256",
          "name": "",
          "type": "uint256"
        }
      ],
      "payable": false,
      "stateMutability": "view",
      "type": "function"
    },
    {
      "constant": true,
      "inputs": [
        {
          "internalType": "uint256",
          "name": "",
          "type": "uint256"
        }
      ],
      "name": "locations",
      "outputs": [
        {
          "internalType": "uint256",
          "name": "id",
          "type": "uint256"
        },
        {
          "internalType": "string",
          "name": "name",
          "type": "string"
        },
        {
          "internalType": "bool",
          "name": "active",
          "type": "bool"
        }
      ],
      "payable": false,
      "stateMutability": "view",
      "type": "function"
    },
    {
      "constant": true,
      "inputs": [
        {
          "internalType": "uint256",
          "name": "",
          "type": "uint256"
        }
      ],
      "name": "movieBookings",
      "outputs": [
        {
          "internalType": "uint256",
          "name": "bookingId",
          "type": "uint256"
        },
        {
          "internalType": "uint256",
          "name": "userId",
          "type": "uint256"
        },
        {
          "internalType": "uint256",
          "name": "movieId",
          "type": "uint256"
        },
        {
          "internalType": "string",
          "name": "movieName",
          "type": "string"
        },
        {
          "internalType": "uint256",
          "name": "cinemaHallID",
          "type": "uint256"
        },
        {
          "internalType": "uint256",
          "name": "date",
          "type": "uint256"
        },
        {
          "internalType": "uint256",
          "name": "startTime",
          "type": "uint256"
        },
        {
          "internalType": "bool",
          "name": "cancelled",
          "type": "bool"
        }
      ],
      "payable": false,
      "stateMutability": "view",
      "type": "function"
    },
    {
      "constant": true,
      "inputs": [],
      "name": "movieNumber",
      "outputs": [
        {
          "internalType": "uint256",
          "name": "",
          "type": "uint256"
        }
      ],
      "payable": false,
      "stateMutability": "view",
      "type": "function"
    },
    {
      "constant": true,
      "inputs": [
        {
          "internalType": "uint256",
          "name": "",
          "type": "uint256"
        }
      ],
      "name": "movies",
      "outputs": [
        {
          "internalType": "uint256",
          "name": "id",
          "type": "uint256"
        },
        {
          "internalType": "uint256",
          "name": "cinemaHallId",
          "type": "uint256"
        },
        {
          "internalType": "string",
          "name": "cinemaHallName",
          "type": "string"
        },
        {
          "internalType": "string",
          "name": "name",
          "type": "string"
        },
        {
          "internalType": "uint256",
          "name": "startDate",
          "type": "uint256"
        },
        {
          "internalType": "uint256",
          "name": "endDate",
          "type": "uint256"
        },
        {
          "internalType": "uint256",
          "name": "startTime",
          "type": "uint256"
        },
        {
          "internalType": "uint256",
          "name": "totalTime",
          "type": "uint256"
        },
        {
          "internalType": "bool",
          "name": "active",
          "type": "bool"
        }
      ],
      "payable": false,
      "stateMutability": "view",
      "type": "function"
    },
    {
      "constant": true,
      "inputs": [],
      "name": "owner",
      "outputs": [
        {
          "internalType": "address payable",
          "name": "",
          "type": "address"
        }
      ],
      "payable": false,
      "stateMutability": "view",
      "type": "function"
    },
    {
      "constant": true,
      "inputs": [],
      "name": "reviewNumber",
      "outputs": [
        {
          "internalType": "uint256",
          "name": "",
          "type": "uint256"
        }
      ],
      "payable": false,
      "stateMutability": "view",
      "type": "function"
    },
    {
      "constant": true,
      "inputs": [
        {
          "internalType": "uint256",
          "name": "",
          "type": "uint256"
        }
      ],
      "name": "reviews",
      "outputs": [
        {
          "internalType": "uint256",
          "name": "reviewId",
          "type": "uint256"
        },
        {
          "internalType": "uint256",
          "name": "userId",
          "type": "uint256"
        },
        {
          "internalType": "uint256",
          "name": "movieId",
          "type": "uint256"
        },
        {
          "internalType": "uint256",
          "name": "rating",
          "type": "uint256"
        },
        {
          "internalType": "string",
          "name": "review",
          "type": "string"
        }
      ],
      "payable": false,
      "stateMutability": "view",
      "type": "function"
    },
    {
      "constant": true,
      "inputs": [
        {
          "internalType": "uint256",
          "name": "",
          "type": "uint256"
        }
      ],
      "name": "userCheckInCheckouts",
      "outputs": [
        {
          "internalType": "uint256",
          "name": "cid",
          "type": "uint256"
        },
        {
          "internalType": "uint256",
          "name": "userId",
          "type": "uint256"
        },
        {
          "internalType": "uint256",
          "name": "movieId",
          "type": "uint256"
        },
        {
          "internalType": "uint256",
          "name": "checkInTime",
          "type": "uint256"
        },
        {
          "internalType": "uint256",
          "name": "checkOutTime",
          "type": "uint256"
        }
      ],
      "payable": false,
      "stateMutability": "view",
      "type": "function"
    },
    {
      "constant": true,
      "inputs": [
        {
          "internalType": "uint256",
          "name": "",
          "type": "uint256"
        }
      ],
      "name": "userDetails",
      "outputs": [
        {
          "internalType": "uint256",
          "name": "id",
          "type": "uint256"
        },
        {
          "internalType": "string",
          "name": "name",
          "type": "string"
        },
        {
          "internalType": "string",
          "name": "email",
          "type": "string"
        },
        {
          "internalType": "string",
          "name": "password",
          "type": "string"
        }
      ],
      "payable": false,
      "stateMutability": "view",
      "type": "function"
    },
    {
      "constant": true,
      "inputs": [],
      "name": "userNumber",
      "outputs": [
        {
          "internalType": "uint256",
          "name": "",
          "type": "uint256"
        }
      ],
      "payable": false,
      "stateMutability": "view",
      "type": "function"
    },
    {
      "constant": false,
      "inputs": [
        {
          "internalType": "string",
          "name": "_locationName",
          "type": "string"
        }
      ],
      "name": "addLocation",
      "outputs": [],
      "payable": false,
      "stateMutability": "nonpayable",
      "type": "function"
    },
    {
      "constant": false,
      "inputs": [
        {
          "internalType": "uint256",
          "name": "_id",
          "type": "uint256"
        }
      ],
      "name": "deleteLocation",
      "outputs": [],
      "payable": false,
      "stateMutability": "nonpayable",
      "type": "function"
    },
    {
      "constant": false,
      "inputs": [
        {
          "internalType": "string",
          "name": "_name",
          "type": "string"
        },
        {
          "internalType": "uint256",
          "name": "_locationID",
          "type": "uint256"
        }
      ],
      "name": "addCinemaHall",
      "outputs": [],
      "payable": false,
      "stateMutability": "nonpayable",
      "type": "function"
    },
    {
      "constant": false,
      "inputs": [
        {
          "internalType": "uint256",
          "name": "_id",
          "type": "uint256"
        }
      ],
      "name": "deleteCinemaHall",
      "outputs": [],
      "payable": false,
      "stateMutability": "nonpayable",
      "type": "function"
    },
    {
      "constant": false,
      "inputs": [
        {
          "internalType": "string",
          "name": "_name",
          "type": "string"
        },
        {
          "internalType": "uint256",
          "name": "_cinemaHallID",
          "type": "uint256"
        },
        {
          "internalType": "uint256",
          "name": "_startDate",
          "type": "uint256"
        },
        {
          "internalType": "uint256",
          "name": "_endDate",
          "type": "uint256"
        },
        {
          "internalType": "uint256",
          "name": "_startTime",
          "type": "uint256"
        },
        {
          "internalType": "uint256",
          "name": "_totalTime",
          "type": "uint256"
        }
      ],
      "name": "addMovie",
      "outputs": [],
      "payable": false,
      "stateMutability": "nonpayable",
      "type": "function"
    },
    {
      "constant": false,
      "inputs": [
        {
          "internalType": "uint256",
          "name": "_id",
          "type": "uint256"
        }
      ],
      "name": "removeMovie",
      "outputs": [],
      "payable": false,
      "stateMutability": "nonpayable",
      "type": "function"
    },
    {
      "constant": false,
      "inputs": [
        {
          "internalType": "uint256",
          "name": "_id",
          "type": "uint256"
        },
        {
          "internalType": "uint256",
          "name": "_startDate",
          "type": "uint256"
        },
        {
          "internalType": "uint256",
          "name": "_endDate",
          "type": "uint256"
        },
        {
          "internalType": "uint256",
          "name": "_startTime",
          "type": "uint256"
        },
        {
          "internalType": "uint256",
          "name": "_totalTime",
          "type": "uint256"
        }
      ],
      "name": "updateMovie",
      "outputs": [],
      "payable": false,
      "stateMutability": "nonpayable",
      "type": "function"
    },
    {
      "constant": false,
      "inputs": [
        {
          "internalType": "string",
          "name": "_name",
          "type": "string"
        },
        {
          "internalType": "string",
          "name": "_email",
          "type": "string"
        },
        {
          "internalType": "string",
          "name": "_password",
          "type": "string"
        }
      ],
      "name": "signUp",
      "outputs": [],
      "payable": false,
      "stateMutability": "nonpayable",
      "type": "function"
    },
    {
      "constant": false,
      "inputs": [
        {
          "internalType": "uint256",
          "name": "_userId",
          "type": "uint256"
        },
        {
          "internalType": "uint256",
          "name": "_movieId",
          "type": "uint256"
        },
        {
          "internalType": "uint256",
          "name": "_cinemaHallId",
          "type": "uint256"
        },
        {
          "internalType": "uint256",
          "name": "_date",
          "type": "uint256"
        },
        {
          "internalType": "uint256",
          "name": "_time",
          "type": "uint256"
        }
      ],
      "name": "bookMovieTicket",
      "outputs": [],
      "payable": true,
      "stateMutability": "payable",
      "type": "function"
    },
    {
      "constant": false,
      "inputs": [
        {
          "internalType": "uint256",
          "name": "_userId",
          "type": "uint256"
        },
        {
          "internalType": "uint256",
          "name": "_movieId",
          "type": "uint256"
        }
      ],
      "name": "cancelMovieTicket",
      "outputs": [],
      "payable": true,
      "stateMutability": "payable",
      "type": "function"
    },
    {
      "constant": false,
      "inputs": [
        {
          "internalType": "uint256",
          "name": "_userId",
          "type": "uint256"
        },
        {
          "internalType": "uint256",
          "name": "_movieId",
          "type": "uint256"
        },
        {
          "internalType": "uint256",
          "name": "_checkInTime",
          "type": "uint256"
        }
      ],
      "name": "checkIn",
      "outputs": [],
      "payable": false,
      "stateMutability": "nonpayable",
      "type": "function"
    },
    {
      "constant": false,
      "inputs": [
        {
          "internalType": "uint256",
          "name": "_userId",
          "type": "uint256"
        },
        {
          "internalType": "uint256",
          "name": "_movieId",
          "type": "uint256"
        },
        {
          "internalType": "uint256",
          "name": "_checkOutTime",
          "type": "uint256"
        },
        {
          "internalType": "string",
          "name": "_review",
          "type": "string"
        }
      ],
      "name": "checkOut",
      "outputs": [],
      "payable": false,
      "stateMutability": "nonpayable",
      "type": "function"
    },
    {
      "constant": false,
      "inputs": [
        {
          "internalType": "uint256",
          "name": "_userId",
          "type": "uint256"
        },
        {
          "internalType": "uint256",
          "name": "_movieId",
          "type": "uint256"
        },
        {
          "internalType": "uint256",
          "name": "_checkInTime",
          "type": "uint256"
        },
        {
          "internalType": "uint256",
          "name": "_checkOutTime",
          "type": "uint256"
        },
        {
          "internalType": "uint256",
          "name": "movieLength",
          "type": "uint256"
        },
        {
          "internalType": "string",
          "name": "_review",
          "type": "string"
        }
      ],
      "name": "calculateRatingBasedOnTime",
      "outputs": [],
      "payable": false,
      "stateMutability": "nonpayable",
      "type": "function"
    }
  ],
  "bytecode": "0x608060405260006002556000600355600060045560006005556000600655600060075560006008553480156200003457600080fd5b506040518060400160405280601081526020017f43696e65506c617a61204d6f76696573000000000000000000000000000000008152506000908051906020019062000082929190620000ca565b5033600160006101000a81548173ffffffffffffffffffffffffffffffffffffffff021916908373ffffffffffffffffffffffffffffffffffffffff16021790555062000179565b828054600181600116156101000203166002900490600052602060002090601f016020900481019282601f106200010d57805160ff19168380011785556200013e565b828001600101855582156200013e579182015b828111156200013d57825182559160200191906001019062000120565b5b5090506200014d919062000151565b5090565b6200017691905b808211156200017257600081600090555060010162000158565b5090565b90565b615f6f80620001896000396000f3fe6080604052600436106101c25760003560e01c80638505198c116100f7578063bd9cb09e11610095578063edf030df11610064578063edf030df146111f5578063f517504e14611220578063f5ec2eed14611276578063f7cfaab514611306576101c2565b8063bd9cb09e14610e8c578063c8a89d0714610ec4578063cb2b6f1414610f2f578063e83ddcea14611125576101c2565b80638da5cb5b116100d15780638da5cb5b14610b0a578063a9cad37b14610b61578063aa4baaf114610cf4578063b9e0db3514610dc6576101c2565b80638505198c146108db57806386f51ca0146109d55780638a3e163614610a10576101c2565b80634ffa7dca11610164578063621ea8541161013e578063621ea8541461063f5780637033f4071461068e57806374385d62146106b95780637ccdc65b146107a2576101c2565b80634ffa7dca14610511578063514ef3361461054c5780635fddb08814610577576101c2565b80632f34d887116101a05780632f34d8871461033b578063394c0c7a146103665780633d0c7f8014610391578063404ebf6c146103bc576101c2565b80630e0c9791146101c75780632b23f0a71461022a5780632b4e841314610310575b600080fd5b3480156101d357600080fd5b50610228600480360360a08110156101ea57600080fd5b810190808035906020019092919080359060200190929190803590602001909291908035906020019092919080359060200190929190505050611341565b005b34801561023657600080fd5b5061030e6004803603608081101561024d57600080fd5b810190808035906020019092919080359060200190929190803590602001909291908035906020019064010000000081111561028857600080fd5b82018360208201111561029a57600080fd5b803590602001918460018302840111640100000000831117156102bc57600080fd5b91908080601f016020809104026020016040519081016040528093929190818152602001838380828437600081840152601f19601f8201169050808301925050505050505091929192905050506118d8565b005b34801561031c57600080fd5b5061032561209e565b6040518082815260200191505060405180910390f35b34801561034757600080fd5b506103506120a4565b6040518082815260200191505060405180910390f35b34801561037257600080fd5b5061037b6120aa565b6040518082815260200191505060405180910390f35b34801561039d57600080fd5b506103a66120b0565b6040518082815260200191505060405180910390f35b3480156103c857600080fd5b506103f5600480360360208110156103df57600080fd5b81019080803590602001909291905050506120b6565b604051808a815260200189815260200180602001806020018881526020018781526020018681526020018581526020018415151515815260200183810383528a818151815260200191508051906020019080838360005b8381101561046757808201518184015260208101905061044c565b50505050905090810190601f1680156104945780820380516001836020036101000a031916815260200191505b50838103825289818151815260200191508051906020019080838360005b838110156104cd5780820151818401526020810190506104b2565b50505050905090810190601f1680156104fa5780820380516001836020036101000a031916815260200191505b509b50505050505050505050505060405180910390f35b34801561051d57600080fd5b5061054a6004803603602081101561053457600080fd5b8101908080359060200190929190505050612241565b005b34801561055857600080fd5b506105616126c6565b6040518082815260200191505060405180910390f35b34801561058357600080fd5b5061063d6004803603602081101561059a57600080fd5b81019080803590602001906401000000008111156105b757600080fd5b8201836020820111156105c957600080fd5b803590602001918460018302840111640100000000831117156105eb57600080fd5b91908080601f016020809104026020016040519081016040528093929190818152602001838380828437600081840152601f19601f8201169050808301925050505050505091929192905050506126cc565b005b34801561064b57600080fd5b5061068c6004803603606081101561066257600080fd5b810190808035906020019092919080359060200190929190803590602001909291905050506129a8565b005b34801561069a57600080fd5b506106a36130c5565b6040518082815260200191505060405180910390f35b3480156106c557600080fd5b506106f2600480360360208110156106dc57600080fd5b81019080803590602001909291905050506130cb565b604051808981526020018881526020018781526020018060200186815260200185815260200184815260200183151515158152602001828103825287818151815260200191508051906020019080838360005b83811015610760578082015181840152602081019050610745565b50505050905090810190601f16801561078d5780820380516001836020036101000a031916815260200191505b50995050505050505050505060405180910390f35b3480156107ae57600080fd5b506107db600480360360208110156107c557600080fd5b81019080803590602001909291905050506131b8565b60405180868152602001858152602001806020018060200184151515158152602001838103835286818151815260200191508051906020019080838360005b8381101561083557808201518184015260208101905061081a565b50505050905090810190601f1680156108625780820380516001836020036101000a031916815260200191505b50838103825285818151815260200191508051906020019080838360005b8381101561089b578082015181840152602081019050610880565b50505050905090810190601f1680156108c85780820380516001836020036101000a031916815260200191505b5097505050505050505060405180910390f35b3480156108e757600080fd5b506109d3600480360360c08110156108fe57600080fd5b810190808035906020019064010000000081111561091b57600080fd5b82018360208201111561092d57600080fd5b8035906020019184600183028401116401000000008311171561094f57600080fd5b91908080601f016020809104026020016040519081016040528093929190818152602001838380828437600081840152601f19601f820116905080830192505050505050509192919290803590602001909291908035906020019092919080359060200190929190803590602001909291908035906020019092919050505061332b565b005b3480156109e157600080fd5b50610a0e600480360360208110156109f857600080fd5b8101908080359060200190929190505050613a74565b005b348015610a1c57600080fd5b50610b08600480360360c0811015610a3357600080fd5b81019080803590602001909291908035906020019092919080359060200190929190803590602001909291908035906020019092919080359060200190640100000000811115610a8257600080fd5b820183602082011115610a9457600080fd5b80359060200191846001830284011164010000000083111715610ab657600080fd5b91908080601f016020809104026020016040519081016040528093929190818152602001838380828437600081840152601f19601f820116905080830192505050505050509192919290505050613e57565b005b348015610b1657600080fd5b50610b1f613fd9565b604051808273ffffffffffffffffffffffffffffffffffffffff1673ffffffffffffffffffffffffffffffffffffffff16815260200191505060405180910390f35b348015610b6d57600080fd5b50610b9a60048036036020811015610b8457600080fd5b8101908080359060200190929190505050613fff565b60405180858152602001806020018060200180602001848103845287818151815260200191508051906020019080838360005b83811015610be8578082015181840152602081019050610bcd565b50505050905090810190601f168015610c155780820380516001836020036101000a031916815260200191505b50848103835286818151815260200191508051906020019080838360005b83811015610c4e578082015181840152602081019050610c33565b50505050905090810190601f168015610c7b5780820380516001836020036101000a031916815260200191505b50848103825285818151815260200191508051906020019080838360005b83811015610cb4578082015181840152602081019050610c99565b50505050905090810190601f168015610ce15780820380516001836020036101000a031916815260200191505b5097505050505050505060405180910390f35b348015610d0057600080fd5b50610dc460048036036040811015610d1757600080fd5b8101908080359060200190640100000000811115610d3457600080fd5b820183602082011115610d4657600080fd5b80359060200191846001830284011164010000000083111715610d6857600080fd5b91908080601f016020809104026020016040519081016040528093929190818152602001838380828437600081840152601f19601f820116905080830192505050505050509192919290803590602001909291905050506141f7565b005b348015610dd257600080fd5b50610dff60048036036020811015610de957600080fd5b8101908080359060200190929190505050614794565b604051808481526020018060200183151515158152602001828103825284818151815260200191508051906020019080838360005b83811015610e4f578082015181840152602081019050610e34565b50505050905090810190601f168015610e7c5780820380516001836020036101000a031916815260200191505b5094505050505060405180910390f35b610ec260048036036040811015610ea257600080fd5b810190808035906020019092919080359060200190929190505050614863565b005b348015610ed057600080fd5b50610efd60048036036020811015610ee757600080fd5b8101908080359060200190929190505050614c60565b604051808681526020018581526020018481526020018381526020018281526020019550505050505060405180910390f35b348015610f3b57600080fd5b5061112360048036036060811015610f5257600080fd5b8101908080359060200190640100000000811115610f6f57600080fd5b820183602082011115610f8157600080fd5b80359060200191846001830284011164010000000083111715610fa357600080fd5b91908080601f016020809104026020016040519081016040528093929190818152602001838380828437600081840152601f19601f8201169050808301925050505050505091929192908035906020019064010000000081111561100657600080fd5b82018360208201111561101857600080fd5b8035906020019184600183028401116401000000008311171561103a57600080fd5b91908080601f016020809104026020016040519081016040528093929190818152602001838380828437600081840152601f19601f8201169050808301925050505050505091929192908035906020019064010000000081111561109d57600080fd5b8201836020820111156110af57600080fd5b803590602001918460018302840111640100000000831117156110d157600080fd5b91908080601f016020809104026020016040519081016040528093929190818152602001838380828437600081840152601f19601f820116905080830192505050505050509192919290505050614c96565b005b34801561113157600080fd5b5061115e6004803603602081101561114857600080fd5b81019080803590602001909291905050506151f4565b6040518086815260200185815260200184815260200183815260200180602001828103825283818151815260200191508051906020019080838360005b838110156111b657808201518184015260208101905061119b565b50505050905090810190601f1680156111e35780820380516001836020036101000a031916815260200191505b50965050505050505060405180910390f35b34801561120157600080fd5b5061120a6152c2565b6040518082815260200191505060405180910390f35b611274600480360360a081101561123657600080fd5b8101908080359060200190929190803590602001909291908035906020019092919080359060200190929190803590602001909291905050506152c8565b005b34801561128257600080fd5b5061128b6158c4565b6040518080602001828103825283818151815260200191508051906020019080838360005b838110156112cb5780820151818401526020810190506112b0565b50505050905090810190601f1680156112f85780820380516001836020036101000a031916815260200191505b509250505060405180910390f35b34801561131257600080fd5b5061133f6004803603602081101561132957600080fd5b8101908080359060200190929190505050615962565b005b60008511801561135357506004548511155b6113c5576040517f08c379a00000000000000000000000000000000000000000000000000000000081526004018080602001828103825260158152602001807f4d6f7669652073686f756c642062652076616c6964000000000000000000000081525060200191505060405180910390fd5b6113cd615c83565b600b6000878152602001908152602001600020604051806101200160405290816000820154815260200160018201548152602001600282018054600181600116156101000203166002900480601f0160208091040260200160405190810160405280929190818152602001828054600181600116156101000203166002900480156114995780601f1061146e57610100808354040283529160200191611499565b820191906000526020600020905b81548152906001019060200180831161147c57829003601f168201915b50505050508152602001600382018054600181600116156101000203166002900480601f01602080910402602001604051908101604052809291908181526020018280546001816001161561010002031660029004801561153b5780601f106115105761010080835404028352916020019161153b565b820191906000526020600020905b81548152906001019060200180831161151e57829003601f168201915b50505050508152602001600482015481526020016005820154815260200160068201548152602001600782015481526020016008820160009054906101000a900460ff16151515158152505090506000151581610100015115151415611609576040517f08c379a00000000000000000000000000000000000000000000000000000000081526004018080602001828103825260208152602001807f4d6f7669652073746174757320697320616c726561647920696e61637469766581525060200191505060405180910390fd5b600085600b600089815260200190815260200160002060040154148015611645575084600b600089815260200190815260200160002060050154145b8015611666575083600b600089815260200190815260200160002060060154145b8015611699575060011515600b600089815260200190815260200160002060080160009054906101000a900460ff161515145b156116a75780806001019150505b60008114611700576040517f08c379a0000000000000000000000000000000000000000000000000000000008152600401808060200182810382526026815260200180615e8d6026913960400191505060405180910390fd5b85826080018181525050848260a0018181525050838260c0018181525050828260e001818152505081600b60008981526020019081526020016000206000820151816000015560208201518160010155604082015181600201908051906020019061176c929190615cd1565b506060820151816003019080519060200190611789929190615cd1565b506080820151816004015560a0820151816005015560c0820151816006015560e082015181600701556101008201518160080160006101000a81548160ff0219169083151502179055509050507f3554720980b08493712c791afdc104aae587306abd092ca70d953369d68e946782600001518360200151846060015185608001518660a001518760c001518860e00151896101000151604051808981526020018881526020018060200187815260200186815260200185815260200184815260200183151515158152602001828103825288818151815260200191508051906020019080838360005b8381101561188e578082015181840152602081019050611873565b50505050905090810190601f1680156118bb5780820380516001836020036101000a031916815260200191505b50995050505050505050505060405180910390a150505050505050565b6000841180156118ea57506005548411155b61195c576040517f08c379a00000000000000000000000000000000000000000000000000000000081526004018080602001828103825260148152602001807f557365722073686f756c642062652076616c696400000000000000000000000081525060200191505060405180910390fd5b60008311801561196e57506004548311155b6119e0576040517f08c379a00000000000000000000000000000000000000000000000000000000081526004018080602001828103825260158152602001807f4d6f7669652073686f756c642062652076616c6964000000000000000000000081525060200191505060405180910390fd5b6119e8615c83565b600b6000858152602001908152602001600020604051806101200160405290816000820154815260200160018201548152602001600282018054600181600116156101000203166002900480601f016020809104026020016040519081016040528092919081815260200182805460018160011615610100020316600290048015611ab45780601f10611a8957610100808354040283529160200191611ab4565b820191906000526020600020905b815481529060010190602001808311611a9757829003601f168201915b50505050508152602001600382018054600181600116156101000203166002900480601f016020809104026020016040519081016040528092919081815260200182805460018160011615610100020316600290048015611b565780601f10611b2b57610100808354040283529160200191611b56565b820191906000526020600020905b815481529060010190602001808311611b3957829003601f168201915b50505050508152602001600482015481526020016005820154815260200160068201548152602001600782015481526020016008820160009054906101000a900460ff16151515158152505090506000151581610100015115151415611c24576040517f08c379a00000000000000000000000000000000000000000000000000000000081526004018080602001828103825260198152602001807f4d6f766965207374617475732069732020696e6163746976650000000000000081525060200191505060405180910390fd5b600080600190505b6006548111611c855786600d600083815260200190815260200160002060010154148015611c6f575085600d600083815260200190815260200160002060020154145b15611c78578091505b8080600101915050611c2c565b50611c8e615d51565b600d600083815260200190815260200160002060405180610100016040529081600082015481526020016001820154815260200160028201548152602001600382018054600181600116156101000203166002900480601f016020809104026020016040519081016040528092919081815260200182805460018160011615610100020316600290048015611d645780601f10611d3957610100808354040283529160200191611d64565b820191906000526020600020905b815481529060010190602001808311611d4757829003601f168201915b505050505081526020016004820154815260200160058201548152602001600682015481526020016007820160009054906101000a900460ff1615151515815250509050600115158160e0015115151415611e0a576040517f08c379a0000000000000000000000000000000000000000000000000000000008152600401808060200182810382526022815260200180615f196022913960400191505060405180910390fd5b60008090506000600190505b6007548111611e6f5788600e600083815260200190815260200160002060010154148015611e59575087600e600083815260200190815260200160002060020154145b15611e62578091505b8080600101915050611e16565b506000811415611ee7576040517f08c379a00000000000000000000000000000000000000000000000000000000081526004018080602001828103825260178152602001807f5573657220686173206e6f7420636865636b656420696e00000000000000000081525060200191505060405180910390fd5b6000600e60008381526020019081526020016000206004015414611f73576040517f08c379a000000000000000000000000000000000000000000000000000000000815260040180806020018281038252601c8152602001807f557365722068617320616c726561647920636865636b6564206f75740000000081525060200191505060405180910390fd5b611f7b615d98565b600e60008381526020019081526020016000206040518060a00160405290816000820154815260200160018201548152602001600282015481526020016003820154815260200160048201548152505090508681608001818152505080600e6000848152602001908152602001600020600082015181600001556020820151816001015560408201518160020155606082015181600301556080820151816004015590505060008160600151905061203b8a8a838b8a60e001518c613e57565b7f1187aac33401b688809070c0a6f3b00356494285e305ad860551493b082c2ee9838b8b848c604051808681526020018581526020018481526020018381526020018281526020019550505050505060405180910390a150505050505050505050565b60055481565b60025481565b60085481565b60075481565b600b602052806000526040600020600091509050806000015490806001015490806002018054600181600116156101000203166002900480601f01602080910402602001604051908101604052809291908181526020018280546001816001161561010002031660029004801561216e5780601f106121435761010080835404028352916020019161216e565b820191906000526020600020905b81548152906001019060200180831161215157829003601f168201915b505050505090806003018054600181600116156101000203166002900480601f01602080910402602001604051908101604052809291908181526020018280546001816001161561010002031660029004801561220c5780601f106121e15761010080835404028352916020019161220c565b820191906000526020600020905b8154815290600101906020018083116121ef57829003601f168201915b5050505050908060040154908060050154908060060154908060070154908060080160009054906101000a900460ff16905089565b60008111801561225357506004548111155b6122c5576040517f08c379a00000000000000000000000000000000000000000000000000000000081526004018080602001828103825260158152602001807f4d6f7669652073686f756c642062652076616c6964000000000000000000000081525060200191505060405180910390fd5b6122cd615c83565b600b6000838152602001908152602001600020604051806101200160405290816000820154815260200160018201548152602001600282018054600181600116156101000203166002900480601f0160208091040260200160405190810160405280929190818152602001828054600181600116156101000203166002900480156123995780601f1061236e57610100808354040283529160200191612399565b820191906000526020600020905b81548152906001019060200180831161237c57829003601f168201915b50505050508152602001600382018054600181600116156101000203166002900480601f01602080910402602001604051908101604052809291908181526020018280546001816001161561010002031660029004801561243b5780601f106124105761010080835404028352916020019161243b565b820191906000526020600020905b81548152906001019060200180831161241e57829003601f168201915b50505050508152602001600482015481526020016005820154815260200160068201548152602001600782015481526020016008820160009054906101000a900460ff16151515158152505090506000151581610100015115151415612509576040517f08c379a00000000000000000000000000000000000000000000000000000000081526004018080602001828103825260208152602001807f4d6f7669652073746174757320697320616c726561647920696e61637469766581525060200191505060405180910390fd5b60008161010001901515908115158152505080600b60008481526020019081526020016000206000820151816000015560208201518160010155604082015181600201908051906020019061255f929190615cd1565b50606082015181600301908051906020019061257c929190615cd1565b506080820151816004015560a0820151816005015560c0820151816006015560e082015181600701556101008201518160080160006101000a81548160ff0219169083151502179055509050507f01c45e26304c7dc01014f021688978f14b406649170ac249875a143fcb1ca96381600001518260200151836060015184608001518560a001518660c001518760e00151886101000151604051808981526020018881526020018060200187815260200186815260200185815260200184815260200183151515158152602001828103825288818151815260200191508051906020019080838360005b83811015612681578082015181840152602081019050612666565b50505050905090810190601f1680156126ae5780820380516001836020036101000a031916815260200191505b50995050505050505050505060405180910390a15050565b60065481565b6000815111612743576040517f08c379a000000000000000000000000000000000000000000000000000000000815260040180806020018281038252601b8152602001807f4c6f636174696f6e2773206e616d65206973207265717569726564000000000081525060200191505060405180910390fd5b600080905060006002541115612807576000600190505b60025481116128055782805190602001206009600083815260200190815260200160002060010160405180828054600181600116156101000203166002900480156127dc5780601f106127ba5761010080835404028352918201916127dc565b820191906000526020600020905b8154815290600101906020018083116127c8575b5050915050604051809103902014156127f85781806001019250505b808060010191505061275a565b505b60008114612860576040517f08c379a0000000000000000000000000000000000000000000000000000000008152600401808060200182810382526025815260200180615e416025913960400191505060405180910390fd5b60026000815480929190600101919050555060405180606001604052806002548152602001838152602001600115158152506009600060025481526020019081526020016000206000820151816000015560208201518160010190805190602001906128cd929190615cd1565b5060408201518160020160006101000a81548160ff0219169083151502179055509050507f66b827cdfa4512e1f955bee9252d2b43a1ca0ecf1064ecb717033738516f665f600254836001604051808481526020018060200183151515158152602001828103825284818151815260200191508051906020019080838360005b8381101561296857808201518184015260208101905061294d565b50505050905090810190601f1680156129955780820380516001836020036101000a031916815260200191505b5094505050505060405180910390a15050565b6000831180156129ba57506005548311155b612a2c576040517f08c379a00000000000000000000000000000000000000000000000000000000081526004018080602001828103825260148152602001807f557365722073686f756c642062652076616c696400000000000000000000000081525060200191505060405180910390fd5b600082118015612a3e57506004548211155b612ab0576040517f08c379a00000000000000000000000000000000000000000000000000000000081526004018080602001828103825260158152602001807f4d6f7669652073686f756c642062652076616c6964000000000000000000000081525060200191505060405180910390fd5b612ab8615c83565b600b6000848152602001908152602001600020604051806101200160405290816000820154815260200160018201548152602001600282018054600181600116156101000203166002900480601f016020809104026020016040519081016040528092919081815260200182805460018160011615610100020316600290048015612b845780601f10612b5957610100808354040283529160200191612b84565b820191906000526020600020905b815481529060010190602001808311612b6757829003601f168201915b50505050508152602001600382018054600181600116156101000203166002900480601f016020809104026020016040519081016040528092919081815260200182805460018160011615610100020316600290048015612c265780601f10612bfb57610100808354040283529160200191612c26565b820191906000526020600020905b815481529060010190602001808311612c0957829003601f168201915b50505050508152602001600482015481526020016005820154815260200160068201548152602001600782015481526020016008820160009054906101000a900460ff16151515158152505090506000151581610100015115151415612cf4576040517f08c379a00000000000000000000000000000000000000000000000000000000081526004018080602001828103825260198152602001807f4d6f766965207374617475732069732020696e6163746976650000000000000081525060200191505060405180910390fd5b600080600190505b6006548111612d885785600d600083815260200190815260200160002060010154148015612d3f575084600d600083815260200190815260200160002060020154145b8015612d72575060001515600d600083815260200190815260200160002060070160009054906101000a900460ff161515145b15612d7b578091505b8080600101915050612cfc565b50612d91615d51565b600d600083815260200190815260200160002060405180610100016040529081600082015481526020016001820154815260200160028201548152602001600382018054600181600116156101000203166002900480601f016020809104026020016040519081016040528092919081815260200182805460018160011615610100020316600290048015612e675780601f10612e3c57610100808354040283529160200191612e67565b820191906000526020600020905b815481529060010190602001808311612e4a57829003601f168201915b505050505081526020016004820154815260200160058201548152602001600682015481526020016007820160009054906101000a900460ff1615151515815250509050600115158160e0015115151415612f0d576040517f08c379a0000000000000000000000000000000000000000000000000000000008152600401808060200182810382526022815260200180615f196022913960400191505060405180910390fd5b600080600190505b6007548111612f6e5787600e600083815260200190815260200160002060010154148015612f58575086600e600083815260200190815260200160002060020154145b15612f61578091505b8080600101915050612f15565b5060008114612fe5576040517f08c379a000000000000000000000000000000000000000000000000000000000815260040180806020018281038252601b8152602001807f557365722068617320616c726561647920636865636b656420696e000000000081525060200191505060405180910390fd5b6007600081548092919060010191905055506040518060a0016040528060075481526020018881526020018781526020018681526020016000815250600e6000600754815260200190815260200160002060008201518160000155602082015181600101556040820151816002015560608201518160030155608082015181600401559050507f2fef433127344dba0927c396981027c572c42a3cb7638d07fae9ae8f67cdb7d26007548888886040518085815260200184815260200183815260200182815260200194505050505060405180910390a150505050505050565b60045481565b600d602052806000526040600020600091509050806000015490806001015490806002015490806003018054600181600116156101000203166002900480601f0160208091040260200160405190810160405280929190818152602001828054600181600116156101000203166002900480156131895780601f1061315e57610100808354040283529160200191613189565b820191906000526020600020905b81548152906001019060200180831161316c57829003601f168201915b5050505050908060040154908060050154908060060154908060070160009054906101000a900460ff16905088565b600a602052806000526040600020600091509050806000015490806001015490806002018054600181600116156101000203166002900480601f0160208091040260200160405190810160405280929190818152602001828054600181600116156101000203166002900480156132705780601f1061324557610100808354040283529160200191613270565b820191906000526020600020905b81548152906001019060200180831161325357829003601f168201915b505050505090806003018054600181600116156101000203166002900480601f01602080910402602001604051908101604052809291908181526020018280546001816001161561010002031660029004801561330e5780601f106132e35761010080835404028352916020019161330e565b820191906000526020600020905b8154815290600101906020018083116132f157829003601f168201915b5050505050908060040160009054906101000a900460ff16905085565b60008651116133a2576040517f08c379a00000000000000000000000000000000000000000000000000000000081526004018080602001828103825260188152602001807f4d6f7669652773206e616d65206973207265717569726564000000000000000081525060200191505060405180910390fd5b6000851180156133b457506003548511155b613426576040517f08c379a000000000000000000000000000000000000000000000000000000000815260040180806020018281038252601b8152602001807f43696e656d612048616c6c2073686f756c642062652076616c6964000000000081525060200191505060405180910390fd5b61342e615dc7565b600a60008781526020019081526020016000206040518060a00160405290816000820154815260200160018201548152602001600282018054600181600116156101000203166002900480601f0160208091040260200160405190810160405280929190818152602001828054600181600116156101000203166002900480156134f95780601f106134ce576101008083540402835291602001916134f9565b820191906000526020600020905b8154815290600101906020018083116134dc57829003601f168201915b50505050508152602001600382018054600181600116156101000203166002900480601f01602080910402602001604051908101604052809291908181526020018280546001816001161561010002031660029004801561359b5780601f106135705761010080835404028352916020019161359b565b820191906000526020600020905b81548152906001019060200180831161357e57829003601f168201915b505050505081526020016004820160009054906101000a900460ff161515151581525050905060001515816080015115151415613640576040517f08c379a000000000000000000000000000000000000000000000000000000000815260040180806020018281038252601e8152602001807f43696e656d612048616c6c2073746174757320697320696e616374697665000081525060200191505060405180910390fd5b6000809050600060045411156137bb576000600190505b60045481116137b9578880519060200120600b600083815260200190815260200160002060030160405180828054600181600116156101000203166002900480156136d95780601f106136b75761010080835404028352918201916136d9565b820191906000526020600020905b8154815290600101906020018083116136c5575b50509150506040518091039020148015613708575087600b600083815260200190815260200160002060010154145b8015613729575086600b600083815260200190815260200160002060040154145b801561374a575085600b600083815260200190815260200160002060050154145b801561376b575084600b600083815260200190815260200160002060060154145b801561379e575060011515600b600083815260200190815260200160002060080160009054906101000a900460ff161515145b156137ac5781806001019250505b8080600101915050613657565b505b60008114613814576040517f08c379a0000000000000000000000000000000000000000000000000000000008152600401808060200182810382526026815260200180615e8d6026913960400191505060405180910390fd5b60046000815480929190600101919050555060405180610120016040528060045481526020018881526020018360600151815260200189815260200187815260200186815260200185815260200184815260200160011515815250600b60006004548152602001908152602001600020600082015181600001556020820151816001015560408201518160020190805190602001906138b4929190615cd1565b5060608201518160030190805190602001906138d1929190615cd1565b506080820151816004015560a0820151816005015560c0820151816006015560e082015181600701556101008201518160080160006101000a81548160ff0219169083151502179055509050507f6e0932ef7c47a74f814c288a3f33a92073dec1d12ad0cb024753a55f224e18b66004548884606001518b8a8a8a8a6001604051808a815260200189815260200180602001806020018881526020018781526020018681526020018581526020018415151515815260200183810383528a818151815260200191508051906020019080838360005b838110156139c15780820151818401526020810190506139a6565b50505050905090810190601f1680156139ee5780820380516001836020036101000a031916815260200191505b50838103825289818151815260200191508051906020019080838360005b83811015613a27578082015181840152602081019050613a0c565b50505050905090810190601f168015613a545780820380516001836020036101000a031916815260200191505b509b50505050505050505050505060405180910390a15050505050505050565b600081118015613a8657506003548111155b613af8576040517f08c379a000000000000000000000000000000000000000000000000000000000815260040180806020018281038252601b8152602001807f43696e656d612048616c6c2073686f756c642062652076616c6964000000000081525060200191505060405180910390fd5b613b00615dc7565b600a60008381526020019081526020016000206040518060a00160405290816000820154815260200160018201548152602001600282018054600181600116156101000203166002900480601f016020809104026020016040519081016040528092919081815260200182805460018160011615610100020316600290048015613bcb5780601f10613ba057610100808354040283529160200191613bcb565b820191906000526020600020905b815481529060010190602001808311613bae57829003601f168201915b50505050508152602001600382018054600181600116156101000203166002900480601f016020809104026020016040519081016040528092919081815260200182805460018160011615610100020316600290048015613c6d5780601f10613c4257610100808354040283529160200191613c6d565b820191906000526020600020905b815481529060010190602001808311613c5057829003601f168201915b505050505081526020016004820160009054906101000a900460ff161515151581525050905060001515816080015115151415613cf5576040517f08c379a0000000000000000000000000000000000000000000000000000000008152600401808060200182810382526027815260200180615e666027913960400191505060405180910390fd5b600081608001901515908115158152505080600a600084815260200190815260200160002060008201518160000155602082015181600101556040820151816002019080519060200190613d4a929190615cd1565b506060820151816003019080519060200190613d67929190615cd1565b5060808201518160040160006101000a81548160ff0219169083151502179055509050507f146105ab82af9006e6ac4cec93e0e6c953213e1783e393b87d918e60946c73988160000151826020015183606001518460800151604051808581526020018481526020018060200183151515158152602001828103825284818151815260200191508051906020019080838360005b83811015613e16578082015181840152602081019050613dfb565b50505050905090810190601f168015613e435780820380516001836020036101000a031916815260200191505b509550505050505060405180910390a15050565b60086000815480929190600101919050555060008061ea6086860381613e7957fe5b04905083600a820281613e8857fe5b0491506040518060a00160405280600854815260200189815260200188815260200183815260200184815250600f60006008548152602001908152602001600020600082015181600001556020820151816001015560408201518160020155606082015181600301556080820151816004019080519060200190613f0d929190615cd1565b509050507f10af251a05d3190b8bd25ea1e652b22e94c2258997b23c9f9dcfa1c105f5ea3b600854898985876040518086815260200185815260200184815260200183815260200180602001828103825283818151815260200191508051906020019080838360005b83811015613f91578082015181840152602081019050613f76565b50505050905090810190601f168015613fbe5780820380516001836020036101000a031916815260200191505b50965050505050505060405180910390a15050505050505050565b600160009054906101000a900473ffffffffffffffffffffffffffffffffffffffff1681565b600c602052806000526040600020600091509050806000015490806001018054600181600116156101000203166002900480601f0160208091040260200160405190810160405280929190818152602001828054600181600116156101000203166002900480156140b15780601f10614086576101008083540402835291602001916140b1565b820191906000526020600020905b81548152906001019060200180831161409457829003601f168201915b505050505090806002018054600181600116156101000203166002900480601f01602080910402602001604051908101604052809291908181526020018280546001816001161561010002031660029004801561414f5780601f106141245761010080835404028352916020019161414f565b820191906000526020600020905b81548152906001019060200180831161413257829003601f168201915b505050505090806003018054600181600116156101000203166002900480601f0160208091040260200160405190810160405280929190818152602001828054600181600116156101000203166002900480156141ed5780601f106141c2576101008083540402835291602001916141ed565b820191906000526020600020905b8154815290600101906020018083116141d057829003601f168201915b5050505050905084565b600082511161426e576040517f08c379a000000000000000000000000000000000000000000000000000000000815260040180806020018281038252601e8152602001807f43696e656d612048616c6c2773206e616d65206973207265717569726564000081525060200191505060405180910390fd5b60008111801561428057506002548111155b6142f2576040517f08c379a00000000000000000000000000000000000000000000000000000000081526004018080602001828103825260188152602001807f4c6f636174696f6e2073686f756c642062652076616c6964000000000000000081525060200191505060405180910390fd5b6142fa615df8565b6009600083815260200190815260200160002060405180606001604052908160008201548152602001600182018054600181600116156101000203166002900480601f0160208091040260200160405190810160405280929190818152602001828054600181600116156101000203166002900480156143bb5780601f10614390576101008083540402835291602001916143bb565b820191906000526020600020905b81548152906001019060200180831161439e57829003601f168201915b505050505081526020016002820160009054906101000a900460ff161515151581525050905060001515816040015115151415614460576040517f08c379a000000000000000000000000000000000000000000000000000000000815260040180806020018281038252601b8152602001807f4c6f636174696f6e2073746174757320697320696e616374697665000000000081525060200191505060405180910390fd5b6000806003541115614541576000600190505b600354811161453f578480519060200120600a600083815260200190815260200160002060030160405180828054600181600116156101000203166002900480156144f55780601f106144d35761010080835404028352918201916144f5565b820191906000526020600020905b8154815290600101906020018083116144e1575b50509150506040518091039020148015614524575083600a600083815260200190815260200160002060010154145b156145325781806001019250505b8080600101915050614473565b505b6000811461459a576040517f08c379a000000000000000000000000000000000000000000000000000000000815260040180806020018281038252603e815260200180615eb3603e913960400191505060405180910390fd5b6003600081548092919060010191905055506040518060a0016040528060035481526020018481526020018360200151815260200185815260200160011515815250600a6000600354815260200190815260200160002060008201518160000155602082015181600101556040820151816002019080519060200190614621929190615cd1565b50606082015181600301908051906020019061463e929190615cd1565b5060808201518160040160006101000a81548160ff0219169083151502179055509050507f8f90702e489debb567d502833b14b8c38965333a7c84db36e8cb6ff8af6524b060035484846020015187600160405180868152602001858152602001806020018060200184151515158152602001838103835286818151815260200191508051906020019080838360005b838110156146e95780820151818401526020810190506146ce565b50505050905090810190601f1680156147165780820380516001836020036101000a031916815260200191505b50838103825285818151815260200191508051906020019080838360005b8381101561474f578082015181840152602081019050614734565b50505050905090810190601f16801561477c5780820380516001836020036101000a031916815260200191505b5097505050505050505060405180910390a150505050565b6009602052806000526040600020600091509050806000015490806001018054600181600116156101000203166002900480601f0160208091040260200160405190810160405280929190818152602001828054600181600116156101000203166002900480156148465780601f1061481b57610100808354040283529160200191614846565b820191906000526020600020905b81548152906001019060200180831161482957829003601f168201915b5050505050908060020160009054906101000a900460ff16905083565b60008211801561487557506005548211155b6148e7576040517f08c379a00000000000000000000000000000000000000000000000000000000081526004018080602001828103825260148152602001807f557365722073686f756c642062652076616c696400000000000000000000000081525060200191505060405180910390fd5b6000811180156148f957506004548111155b61496b576040517f08c379a00000000000000000000000000000000000000000000000000000000081526004018080602001828103825260158152602001807f4d6f7669652073686f756c642062652076616c6964000000000000000000000081525060200191505060405180910390fd5b600080600190505b60065481116149cc5783600d6000838152602001908152602001600020600101541480156149b6575082600d600083815260200190815260200160002060020154145b156149bf578091505b8080600101915050614973565b506149d5615d51565b600d600083815260200190815260200160002060405180610100016040529081600082015481526020016001820154815260200160028201548152602001600382018054600181600116156101000203166002900480601f016020809104026020016040519081016040528092919081815260200182805460018160011615610100020316600290048015614aab5780601f10614a8057610100808354040283529160200191614aab565b820191906000526020600020905b815481529060010190602001808311614a8e57829003601f168201915b505050505081526020016004820154815260200160058201548152602001600682015481526020016007820160009054906101000a900460ff1615151515815250509050600115158160e0015115151415614b51576040517f08c379a0000000000000000000000000000000000000000000000000000000008152600401808060200182810382526022815260200180615f196022913960400191505060405180910390fd5b60018160e001901515908115158152505080600d60008481526020019081526020016000206000820151816000015560208201518160010155604082015181600201556060820151816003019080519060200190614bb0929190615cd1565b506080820151816004015560a0820151816005015560c0820151816006015560e08201518160070160006101000a81548160ff0219169083151502179055509050507f161723eb195587bcb0d94054c7a343c48d9fbaef4db573810c57304dd60a05d482826020015183604001518460a00151600160405180868152602001858152602001848152602001838152602001821515151581526020019550505050505060405180910390a150505050565b600e6020528060005260406000206000915090508060000154908060010154908060020154908060030154908060040154905085565b6000835111614d0d576040517f08c379a00000000000000000000000000000000000000000000000000000000081526004018080602001828103825260108152602001807f4e616d652069732072657175697265640000000000000000000000000000000081525060200191505060405180910390fd5b6000825111614d84576040517f08c379a00000000000000000000000000000000000000000000000000000000081526004018080602001828103825260118152602001807f456d61696c20697320726571756972656400000000000000000000000000000081525060200191505060405180910390fd5b6000815111614dfb576040517f08c379a00000000000000000000000000000000000000000000000000000000081526004018080602001828103825260148152602001807f50617373776f726420697320726571756972656400000000000000000000000081525060200191505060405180910390fd5b600080905060006005541115614f4a576000600190505b6005548111614f48578480519060200120600c60008381526020019081526020016000206001016040518082805460018160011615610100020316600290048015614e945780601f10614e72576101008083540402835291820191614e94565b820191906000526020600020905b815481529060010190602001808311614e80575b50509150506040518091039020148015614f3157508380519060200120600c60008381526020019081526020016000206002016040518082805460018160011615610100020316600290048015614f225780601f10614f00576101008083540402835291820191614f22565b820191906000526020600020905b815481529060010190602001808311614f0e575b50509150506040518091039020145b15614f3b57600191505b8080600101915050614e12565b505b60008114614fc0576040517f08c379a00000000000000000000000000000000000000000000000000000000081526004018080602001828103825260138152602001807f5573657220616c7265616479206578697374730000000000000000000000000081525060200191505060405180910390fd5b6005600081548092919060010191905055506040518060800160405280600554815260200185815260200184815260200183815250600c60006005548152602001908152602001600020600082015181600001556020820151816001019080519060200190615030929190615cd1565b50604082015181600201908051906020019061504d929190615cd1565b50606082015181600301908051906020019061506a929190615cd1565b509050507fba5cf39d07b944d1d80f0dca8de1cb61c8962e562c40e7ae80416a42d44ca69060055485858560405180858152602001806020018060200180602001848103845287818151815260200191508051906020019080838360005b838110156150e35780820151818401526020810190506150c8565b50505050905090810190601f1680156151105780820380516001836020036101000a031916815260200191505b50848103835286818151815260200191508051906020019080838360005b8381101561514957808201518184015260208101905061512e565b50505050905090810190601f1680156151765780820380516001836020036101000a031916815260200191505b50848103825285818151815260200191508051906020019080838360005b838110156151af578082015181840152602081019050615194565b50505050905090810190601f1680156151dc5780820380516001836020036101000a031916815260200191505b5097505050505050505060405180910390a150505050565b600f602052806000526040600020600091509050806000015490806001015490806002015490806003015490806004018054600181600116156101000203166002900480601f0160208091040260200160405190810160405280929190818152602001828054600181600116156101000203166002900480156152b85780601f1061528d576101008083540402835291602001916152b8565b820191906000526020600020905b81548152906001019060200180831161529b57829003601f168201915b5050505050905085565b60035481565b6000851180156152da57506005548511155b61534c576040517f08c379a00000000000000000000000000000000000000000000000000000000081526004018080602001828103825260148152602001807f557365722073686f756c642062652076616c696400000000000000000000000081525060200191505060405180910390fd5b60008411801561535e57506004548411155b6153d0576040517f08c379a00000000000000000000000000000000000000000000000000000000081526004018080602001828103825260158152602001807f4d6f7669652073686f756c642062652076616c6964000000000000000000000081525060200191505060405180910390fd5b6000831180156153e257506003548311155b615454576040517f08c379a000000000000000000000000000000000000000000000000000000000815260040180806020018281038252601b8152602001807f43696e656d612048616c6c2073686f756c642062652076616c6964000000000081525060200191505060405180910390fd5b61545c615c83565b600b6000868152602001908152602001600020604051806101200160405290816000820154815260200160018201548152602001600282018054600181600116156101000203166002900480601f0160208091040260200160405190810160405280929190818152602001828054600181600116156101000203166002900480156155285780601f106154fd57610100808354040283529160200191615528565b820191906000526020600020905b81548152906001019060200180831161550b57829003601f168201915b50505050508152602001600382018054600181600116156101000203166002900480601f0160208091040260200160405190810160405280929190818152602001828054600181600116156101000203166002900480156155ca5780601f1061559f576101008083540402835291602001916155ca565b820191906000526020600020905b8154815290600101906020018083116155ad57829003601f168201915b50505050508152602001600482015481526020016005820154815260200160068201548152602001600782015481526020016008820160009054906101000a900460ff16151515158152505090506000151581610100015115151415615698576040517f08c379a00000000000000000000000000000000000000000000000000000000081526004018080602001828103825260198152602001807f4d6f766965207374617475732069732020696e6163746976650000000000000081525060200191505060405180910390fd5b60006706f05b59d3b200009050803410156156fe576040517f08c379a0000000000000000000000000000000000000000000000000000000008152600401808060200182810382526028815260200180615ef16028913960400191505060405180910390fd5b600660008154809291906001019190505550600160009054906101000a900473ffffffffffffffffffffffffffffffffffffffff1673ffffffffffffffffffffffffffffffffffffffff166108fc349081150290604051600060405180830381858888f19350505050158015615778573d6000803e3d6000fd5b5060405180610100016040528060065481526020018881526020018781526020018360600151815260200186815260200185815260200184815260200160001515815250600d60006006548152602001908152602001600020600082015181600001556020820151816001015560408201518160020155606082015181600301908051906020019061580b929190615cd1565b506080820151816004015560a0820151816005015560c0820151816006015560e08201518160070160006101000a81548160ff0219169083151502179055509050507f89c2b4af0c2d71453bd0dc7d7bda3bef289d030c36b5ed116c4e61c5da70486160065488888888886000604051808881526020018781526020018681526020018581526020018481526020018381526020018215151515815260200197505050505050505060405180910390a150505050505050565b60008054600181600116156101000203166002900480601f01602080910402602001604051908101604052809291908181526020018280546001816001161561010002031660029004801561595a5780601f1061592f5761010080835404028352916020019161595a565b820191906000526020600020905b81548152906001019060200180831161593d57829003601f168201915b505050505081565b60008111801561597457506002548111155b6159e6576040517f08c379a00000000000000000000000000000000000000000000000000000000081526004018080602001828103825260188152602001807f4c6f636174696f6e2073686f756c642062652076616c6964000000000000000081525060200191505060405180910390fd5b6159ee615df8565b6009600083815260200190815260200160002060405180606001604052908160008201548152602001600182018054600181600116156101000203166002900480601f016020809104026020016040519081016040528092919081815260200182805460018160011615610100020316600290048015615aaf5780601f10615a8457610100808354040283529160200191615aaf565b820191906000526020600020905b815481529060010190602001808311615a9257829003601f168201915b505050505081526020016002820160009054906101000a900460ff161515151581525050905060001515816040015115151415615b54576040517f08c379a000000000000000000000000000000000000000000000000000000000815260040180806020018281038252601c8152602001807f4c6f636174696f6e20697320616c726561647920696e6163746976650000000081525060200191505060405180910390fd5b60008160400190151590811515815250508060096000848152602001908152602001600020600082015181600001556020820151816001019080519060200190615b9f929190615cd1565b5060408201518160020160006101000a81548160ff0219169083151502179055509050507f6a729a1db854cff880083b4e1c63a9969e8d150d36446d307d81175ab99bdd82816000015182602001518360400151604051808481526020018060200183151515158152602001828103825284818151815260200191508051906020019080838360005b83811015615c43578082015181840152602081019050615c28565b50505050905090810190601f168015615c705780820380516001836020036101000a031916815260200191505b5094505050505060405180910390a15050565b60405180610120016040528060008152602001600081526020016060815260200160608152602001600081526020016000815260200160008152602001600081526020016000151581525090565b828054600181600116156101000203166002900490600052602060002090601f016020900481019282601f10615d1257805160ff1916838001178555615d40565b82800160010185558215615d40579182015b82811115615d3f578251825591602001919060010190615d24565b5b509050615d4d9190615e1b565b5090565b604051806101000160405280600081526020016000815260200160008152602001606081526020016000815260200160008152602001600081526020016000151581525090565b6040518060a0016040528060008152602001600081526020016000815260200160008152602001600081525090565b6040518060a00160405280600081526020016000815260200160608152602001606081526020016000151581525090565b604051806060016040528060008152602001606081526020016000151581525090565b615e3d91905b80821115615e39576000816000905550600101615e21565b5090565b9056fe4c6f636174696f6e20776974682073616d65206e616d6520616c726561647920657869737443696e656d612048616c6c732073746174757320697320616c726561647920696e6163746976654d6f76696520776974682073616d65202064657461696c7320616c726564792065786973747343696e656d612048616c6c20776974682073616d65206e616d6520616c726561647920657869737420696e2074686520676976656e204c6f636174696f6e5061796d656e742073686f756c6420626520656e6f75676820692e652e20302e35204554484552214d6f76696520626f6f6b696e6720697320616c72656164792063616e63656c6c6564a265627a7a7231582055c0ffb6ae4e17e1d37eab104f5b31ab5ca031b20cc0c95a6e0bee3cd6b3b3dc64736f6c63430005100032",
  "source": "pragma solidity ^0.5.0;\r\n\r\ncontract MovieReview {\r\n    \r\n    string public companyName;\r\n    address payable public owner;\r\n    uint public locationNumber = 0;\r\n    uint public cinemaHallNumber = 0;\r\n    uint public movieNumber = 0;\r\n    uint public userNumber = 0;\r\n    uint public bookingNumber = 0;\r\n    uint public checkInCheckOutNumber = 0;\r\n    uint public reviewNumber = 0;\r\n    \r\n    struct Location {\r\n        uint id;\r\n        string name;\r\n        bool active;\r\n    }\r\n\r\n    struct CinemaHall {\r\n        uint id;\r\n        uint locationId;\r\n        string locationName;\r\n        string name;\r\n        bool active;\r\n    }\r\n\r\n    struct Movie {\r\n        uint id;\r\n        uint cinemaHallId;\r\n        string cinemaHallName;\r\n        string name;\r\n        uint startDate;\r\n        uint endDate;\r\n        uint startTime;\r\n        uint totalTime;\r\n        bool active;\r\n    }\r\n\r\n    struct UserDetail {\r\n        uint id;\r\n        string name;\r\n        string email;\r\n        string password;\r\n    }\r\n\r\n    struct MovieBooking {\r\n        uint bookingId;\r\n        uint userId;\r\n        uint movieId;\r\n        string movieName;\r\n        uint cinemaHallID;\r\n        uint date;\r\n        uint startTime;\r\n        bool cancelled;\r\n    }\r\n\r\n    struct UserCheckInCheckout {\r\n        uint cid;\r\n        uint userId;\r\n        uint movieId;\r\n        uint checkInTime;\r\n        uint checkOutTime;\r\n\r\n    }\r\n\r\n    struct Review {\r\n        uint reviewId;\r\n        uint userId;\r\n        uint movieId;\r\n        uint rating;\r\n        string review;\r\n    }\r\n\r\n    mapping(uint => Location) public locations;\r\n    mapping(uint => CinemaHall) public cinemaHalls;\r\n    mapping(uint => Movie) public movies;\r\n    mapping(uint => UserDetail) public userDetails;\r\n    mapping(uint => MovieBooking) public movieBookings;\r\n    mapping(uint => UserCheckInCheckout) public userCheckInCheckouts;\r\n    mapping(uint => Review) public reviews;\r\n\r\n    event LocationAdded(\r\n        uint id,\r\n        string name,\r\n        bool active\r\n    );\r\n\r\n    event LocationDeleted(\r\n        uint id,\r\n        string name,\r\n        bool active\r\n    );\r\n\r\n    event CinemaHallAdded(\r\n        uint id,\r\n        uint locationId,\r\n        string locationName,\r\n        string name,\r\n        bool active\r\n    );\r\n\r\n    event CinemaHallDeleted(\r\n        uint id,\r\n        uint locationId,\r\n        string name,\r\n        bool active\r\n    );\r\n\r\n    event MovieAdded(\r\n        uint id,\r\n        uint cinemaHallId,\r\n        string cinemaHallName,\r\n        string name,\r\n        uint startDate,\r\n        uint endDate,\r\n        uint startTime,\r\n        uint totalTime,\r\n        bool active\r\n    );\r\n\r\n    event MovieDeleted(\r\n        uint id,\r\n        uint cinemaHallId,\r\n        string name,\r\n        uint startDate,\r\n        uint endDate,\r\n        uint startTime,\r\n        uint totalTime,\r\n        bool active\r\n    );\r\n\r\n    event MovieUpdated(\r\n        uint id,\r\n        uint cinemaHallId,\r\n        string name,\r\n        uint startDate,\r\n        uint endDate,\r\n        uint startTime,\r\n        uint totalTime,\r\n        bool active\r\n    );\r\n\r\n    event NewUserAdded(\r\n        uint id,\r\n        string name,\r\n        string email,\r\n        string password\r\n    );\r\n\r\n    event MovieBooked(\r\n        uint bookingId,\r\n        uint userId,\r\n        uint movieId,\r\n        uint cinemaHallID,\r\n        uint date,\r\n        uint startTime,\r\n        bool cancelled\r\n    );\r\n\r\n    event MovieBookingCancelled(\r\n        uint bookingId,\r\n        uint userId,\r\n        uint movieId,\r\n        uint date,\r\n        bool cancelled\r\n    );\r\n\r\n    event CheckInDone(\r\n        uint cid,\r\n        uint userId,\r\n        uint movieId,\r\n        uint checkInTime\r\n    );\r\n\r\n    event CheckOutDone(\r\n        uint cid,\r\n        uint userId,\r\n        uint movieId,\r\n        uint checkInTime,\r\n        uint checkOutTime\r\n    );\r\n\r\n    event ReviewAdded(\r\n        uint reviewId,\r\n        uint userId,\r\n        uint movieId,\r\n        uint rating,\r\n        string review\r\n    );\r\n    \r\n    constructor() public {\r\n        companyName = \"CinePlaza Movies\";\r\n        owner = msg.sender;\r\n    }\r\n\r\n    function addLocation(string memory _locationName) public {\r\n        require(bytes(_locationName).length > 0, \"Location's name is required\");\r\n        //require(msg.sender == owner, \"Only owner can add location\");\r\n\r\n        uint256 count = 0;\r\n        if(locationNumber > 0)\r\n        {       \r\n             for (uint256 i = 1; i <= locationNumber; i++) {\r\n                if(keccak256(bytes(locations[i].name)) == keccak256(bytes(_locationName)))\r\n                {\r\n                    count++;\r\n                }\r\n            }\r\n        }\r\n        require(count == 0, \"Location with same name already exist\");\r\n\r\n        locationNumber++;\r\n        locations[locationNumber] = Location(locationNumber, _locationName, true);\r\n        emit LocationAdded(locationNumber, _locationName, true);\r\n    }\r\n    \r\n    function deleteLocation(uint _id) public {\r\n        require(_id > 0 && _id <= locationNumber, 'Location should be valid');\r\n        Location memory _location = locations[_id];\r\n        require(_location.active != false, 'Location is already inactive');\r\n        //require(msg.sender == owner, \"Only owner can delete location\");\r\n\r\n        _location.active = false;\r\n        locations[_id] = _location;\r\n\r\n        emit LocationDeleted(_location.id, _location.name, _location.active);\r\n    }\r\n\r\n\r\n    function addCinemaHall(string memory _name, uint _locationID ) public {\r\n        require(bytes(_name).length > 0, \"Cinema Hall's name is required\");\r\n        //require(msg.sender == owner, \"Only owner can add cinema hall\");\r\n        require(_locationID > 0 && _locationID <= locationNumber, 'Location should be valid');\r\n        Location memory _location = locations[_locationID];\r\n        require(_location.active != false, 'Location status is inactive');\r\n\r\n       uint256 count;\r\n        if(cinemaHallNumber > 0)\r\n        {\r\n            for (uint256 i = 1; i <= cinemaHallNumber; i++) {\r\n                if(keccak256(bytes(cinemaHalls[i].name)) == keccak256(bytes(_name)) && cinemaHalls[i].locationId == _locationID)\r\n                {\r\n                    count++;\r\n                }\r\n            }\r\n        }\r\n        require(count == 0, \"Cinema Hall with same name already exist in the given Location\");\r\n\r\n        cinemaHallNumber++;\r\n        cinemaHalls[cinemaHallNumber] = CinemaHall(cinemaHallNumber, _locationID, _location.name, _name, true);\r\n        emit CinemaHallAdded(cinemaHallNumber, _locationID,  _location.name,  _name, true);\r\n    }\r\n\r\n    function deleteCinemaHall(uint _id) public {\r\n        require(_id > 0 && _id <= cinemaHallNumber, 'Cinema Hall should be valid');\r\n        CinemaHall memory _cinemaHall = cinemaHalls[_id];\r\n        require(_cinemaHall.active != false, 'Cinema Halls status is already inactive');\r\n        //require(msg.sender == owner, \"Only owner can delete cinema hall\");\r\n\r\n        _cinemaHall.active = false;\r\n        cinemaHalls[_id] = _cinemaHall;\r\n\r\n        emit CinemaHallDeleted(_cinemaHall.id, _cinemaHall.locationId, _cinemaHall.name, _cinemaHall.active);\r\n    }\r\n\r\n\r\n    function addMovie(string memory _name, uint _cinemaHallID, uint _startDate, uint _endDate, uint _startTime, uint _totalTime) public {\r\n        require(bytes(_name).length > 0, \"Movie's name is required\");\r\n        //require(msg.sender == owner, \"Only owner can add movie\");\r\n        require(_cinemaHallID > 0 && _cinemaHallID <= cinemaHallNumber, 'Cinema Hall should be valid');\r\n        CinemaHall memory _cinemaHall = cinemaHalls[_cinemaHallID];\r\n        require(_cinemaHall.active != false, 'Cinema Hall status is inactive');\r\n\r\n        uint256 count = 0;\r\n        if(movieNumber > 0)\r\n        {\r\n            for (uint256 i = 1; i <= movieNumber; i++) {\r\n                if(keccak256(bytes(movies[i].name)) == keccak256(bytes(_name)) && movies[i].cinemaHallId == _cinemaHallID  && movies[i].startDate == _startDate && movies[i].endDate == _endDate && movies[i].startTime == _startTime && movies[i].active == true )\r\n                {\r\n                    count++;\r\n                }\r\n            }\r\n        }\r\n        require(count == 0, \"Movie with same  details alredy exists\");\r\n\r\n        movieNumber++;\r\n        movies[movieNumber] = Movie(movieNumber, _cinemaHallID, _cinemaHall.name, _name, _startDate, _endDate, _startTime, _totalTime, true);\r\n        emit MovieAdded(movieNumber, _cinemaHallID, _cinemaHall.name, _name, _startDate, _endDate, _startTime, _totalTime, true);\r\n    }\r\n\r\n    function removeMovie(uint _id) public {\r\n        require(_id > 0 && _id <= movieNumber, 'Movie should be valid');\r\n        Movie memory _movie = movies[_id];\r\n        require(_movie.active != false, 'Movie status is already inactive');\r\n        //require(msg.sender == owner, \"Only owner can remove movie\");\r\n\r\n        _movie.active = false;\r\n        movies[_id] = _movie;\r\n\r\n        emit MovieDeleted(_movie.id, _movie.cinemaHallId, _movie.name, _movie.startDate, _movie.endDate, _movie.startTime, _movie.totalTime, _movie.active);\r\n    }\r\n\r\n    function updateMovie(uint _id, uint _startDate, uint _endDate, uint _startTime, uint _totalTime) public {\r\n        require(_id > 0 && _id <= movieNumber, 'Movie should be valid');\r\n        Movie memory _movie = movies[_id];\r\n        require(_movie.active != false, 'Movie status is already inactive');\r\n        //require(msg.sender == owner, \"Only owner can update movie\");\r\n        uint256 count;\r\n        if(movies[_id].startDate == _startDate && movies[_id].endDate == _endDate && movies[_id].startTime == _startTime && movies[_id].active == true )\r\n        {\r\n            count++;\r\n        }\r\n        require(count == 0, \"Movie with same  details alredy exists\");\r\n        _movie.startDate = _startDate;\r\n        _movie.endDate = _endDate;\r\n        _movie.startTime = _startTime;\r\n        _movie.totalTime = _totalTime;\r\n\r\n        movies[_id] = _movie;\r\n        emit MovieUpdated(_movie.id, _movie.cinemaHallId, _movie.name, _movie.startDate, _movie.endDate, _movie.startTime, _movie.totalTime, _movie.active);\r\n    }\r\n\r\n    function signUp(string memory _name, string memory _email, string memory _password) public {\r\n        require(bytes(_name).length > 0, \"Name is required\");\r\n        require(bytes(_email).length > 0, \"Email is required\");\r\n        require(bytes(_password).length > 0, \"Password is required\");\r\n        \r\n        uint256 count = 0;\r\n        if(userNumber > 0) {\r\n            for (uint256 i = 1; i <= userNumber; i++) {\r\n                if(keccak256(bytes(userDetails[i].name)) == keccak256(bytes(_name)) && keccak256(bytes(userDetails[i].email)) == keccak256(bytes(_email)))\r\n                {\r\n                    count = 1;\r\n                }\r\n            }\r\n        }\r\n        require(count == 0, \"User already exists\");\r\n\r\n        userNumber++;\r\n        userDetails[userNumber] = UserDetail(userNumber, _name, _email, _password);\r\n        emit NewUserAdded(userNumber, _name, _email, _password);\r\n    }\r\n\r\n\r\n    function bookMovieTicket(uint _userId, uint _movieId, uint _cinemaHallId, uint _date, uint _time) public payable {\r\n        require(_userId > 0 && _userId <= userNumber, 'User should be valid');\r\n        require(_movieId > 0 && _movieId <= movieNumber, 'Movie should be valid');\r\n        require(_cinemaHallId > 0 && _cinemaHallId <= cinemaHallNumber, 'Cinema Hall should be valid');\r\n        \r\n        Movie memory _movie = movies[_movieId];\r\n        require(_movie.active != false, 'Movie status is  inactive');\r\n        uint value = 500000000000000000;\r\n        require(msg.value >= value, \"Payment should be enough i.e. 0.5 ETHER!\");\r\n        bookingNumber++;\r\n        owner.transfer(msg.value);\r\n        movieBookings[bookingNumber] = MovieBooking(bookingNumber, _userId, _movieId,_movie.name, _cinemaHallId, _date, _time, false);\r\n        emit MovieBooked(bookingNumber, _userId, _movieId, _cinemaHallId, _date, _time, false);\r\n    }\r\n\r\n    function cancelMovieTicket(uint _userId, uint _movieId) public payable {\r\n        require(_userId > 0 && _userId <= userNumber, 'User should be valid');\r\n        require(_movieId > 0 && _movieId <= movieNumber, 'Movie should be valid');\r\n        uint256 bookingId;\r\n        for (uint256 i = 1; i <= bookingNumber; i++) {\r\n            if(movieBookings[i].userId == _userId && movieBookings[i].movieId == _movieId)\r\n            {\r\n                bookingId = i;\r\n            }\r\n        }\r\n\r\n        MovieBooking memory _movieBooking = movieBookings[bookingId];\r\n        require(_movieBooking.cancelled != true, 'Movie booking is already cancelled');\r\n\r\n        _movieBooking.cancelled = true;\r\n        movieBookings[bookingId] = _movieBooking;\r\n\r\n        //address payable customer = msg.sender;\r\n        //uint value = 500000000000000000;\r\n        //customer.transfer(value);\r\n        emit MovieBookingCancelled(bookingId, _movieBooking.userId, _movieBooking.movieId, _movieBooking.date,  true);\r\n    }\r\n\r\n    function checkIn(uint _userId, uint _movieId, uint _checkInTime) public {\r\n        require(_userId > 0 && _userId <= userNumber, 'User should be valid');\r\n        require(_movieId > 0 && _movieId <= movieNumber, 'Movie should be valid');\r\n        Movie memory _movie = movies[_movieId];\r\n        require(_movie.active != false, 'Movie status is  inactive');\r\n        uint256 bookingId;\r\n        for (uint256 i = 1; i <= bookingNumber; i++) {\r\n            if(movieBookings[i].userId == _userId && movieBookings[i].movieId == _movieId && movieBookings[i].cancelled == false)\r\n            {\r\n                bookingId = i;\r\n            }\r\n        }\r\n        MovieBooking memory _movieBooking = movieBookings[bookingId];\r\n        require(_movieBooking.cancelled != true, 'Movie booking is already cancelled');\r\n\r\n        uint256 count;\r\n        for (uint256 i = 1; i <= checkInCheckOutNumber; i++) {\r\n            if(userCheckInCheckouts[i].userId == _userId && userCheckInCheckouts[i].movieId == _movieId)\r\n            {\r\n                count = i;\r\n            }\r\n        }\r\n        require(count == 0, 'User has already checked in');\r\n\r\n        checkInCheckOutNumber++;\r\n        userCheckInCheckouts[checkInCheckOutNumber] = UserCheckInCheckout(checkInCheckOutNumber, _userId, _movieId, _checkInTime, 0);\r\n        emit CheckInDone(checkInCheckOutNumber, _userId, _movieId, _checkInTime);\r\n    }\r\n\r\n    function checkOut(uint _userId, uint _movieId, uint _checkOutTime, string memory _review) public {\r\n        require(_userId > 0 && _userId <= userNumber, 'User should be valid');\r\n        require(_movieId > 0 && _movieId <= movieNumber, 'Movie should be valid');\r\n        Movie memory _movie = movies[_movieId];\r\n        require(_movie.active != false, 'Movie status is  inactive');\r\n        uint256 bookingId;\r\n        for (uint256 i = 1; i <= bookingNumber; i++) {\r\n            if(movieBookings[i].userId == _userId && movieBookings[i].movieId == _movieId)\r\n            {\r\n                bookingId = i;\r\n            }\r\n        }\r\n        MovieBooking memory _movieBooking = movieBookings[bookingId];\r\n        require(_movieBooking.cancelled != true, 'Movie booking is already cancelled');\r\n\r\n        uint256 cid = 0;\r\n        for (uint256 i = 1; i <= checkInCheckOutNumber; i++) {\r\n            if(userCheckInCheckouts[i].userId == _userId && userCheckInCheckouts[i].movieId == _movieId)\r\n            {\r\n                cid = i;\r\n            }\r\n        }\r\n        require(cid != 0, 'User has not checked in');\r\n        require(userCheckInCheckouts[cid].checkOutTime == 0, 'User has already checked out');\r\n        UserCheckInCheckout memory _checkInCheckout = userCheckInCheckouts[cid];\r\n        _checkInCheckout.checkOutTime = _checkOutTime;\r\n\r\n        userCheckInCheckouts[cid] = _checkInCheckout;\r\n        uint checkInTime = _checkInCheckout.checkInTime;\r\n\r\n        calculateRatingBasedOnTime(_userId, _movieId, checkInTime, _checkOutTime,  _movie.totalTime, _review);\r\n        emit CheckOutDone(cid, _userId, _movieId, checkInTime, _checkOutTime);\r\n    }\r\n\r\n    function calculateRatingBasedOnTime( uint _userId, uint _movieId, uint _checkInTime, uint _checkOutTime, uint movieLength, string memory _review) public {\r\n        reviewNumber++;\r\n        uint rating;\r\n        uint time_in_min = (_checkOutTime-_checkInTime)/(1000*60);\r\n        rating = (time_in_min * 10)/movieLength;\r\n        reviews[reviewNumber] = Review(reviewNumber, _userId, _movieId, rating, _review);\r\n        emit ReviewAdded(reviewNumber, _userId, _movieId, rating, _review);\r\n    }\r\n}\r\n",
  "sourcePath": "D:\\eece571g\\25\\MovieReviewsBlockchain\\src\\contracts\\MovieReview.sol",
  "compiler": {
    "name": "solc",
    "version": "0.5.16+commit.9c3226ce.Emscripten.clang"
  },
  "schemaVersion": "3.0.23",
  "updatedAt": "2020-03-28T17:07:42.015Z",
  "devdoc": {
    "methods": {}
  },
  "userdoc": {
    "methods": {}
  }
}