{
  "contractName": "MovieReview",
  "abi": [
    {
      "inputs": [],
      "payable": false,
      "stateMutability": "nonpayable",
      "type": "constructor"
    },
    {
      "anonymous": false,
      "inputs": [
        {
          "indexed": false,
          "internalType": "uint256",
          "name": "cid",
          "type": "uint256"
        },
        {
          "indexed": false,
          "internalType": "uint256",
          "name": "userId",
          "type": "uint256"
        },
        {
          "indexed": false,
          "internalType": "uint256",
          "name": "movieId",
          "type": "uint256"
        },
        {
          "indexed": false,
          "internalType": "uint256",
          "name": "checkInTime",
          "type": "uint256"
        }
      ],
      "name": "CheckInDone",
      "type": "event"
    },
    {
      "anonymous": false,
      "inputs": [
        {
          "indexed": false,
          "internalType": "uint256",
          "name": "cid",
          "type": "uint256"
        },
        {
          "indexed": false,
          "internalType": "uint256",
          "name": "userId",
          "type": "uint256"
        },
        {
          "indexed": false,
          "internalType": "uint256",
          "name": "movieId",
          "type": "uint256"
        },
        {
          "indexed": false,
          "internalType": "uint256",
          "name": "checkInTime",
          "type": "uint256"
        },
        {
          "indexed": false,
          "internalType": "uint256",
          "name": "checkOutTime",
          "type": "uint256"
        }
      ],
      "name": "CheckOutDone",
      "type": "event"
    },
    {
      "anonymous": false,
      "inputs": [
        {
          "indexed": false,
          "internalType": "uint256",
          "name": "id",
          "type": "uint256"
        },
        {
          "indexed": false,
          "internalType": "uint256",
          "name": "locationId",
          "type": "uint256"
        },
        {
          "indexed": false,
          "internalType": "string",
          "name": "name",
          "type": "string"
        },
        {
          "indexed": false,
          "internalType": "bool",
          "name": "active",
          "type": "bool"
        }
      ],
      "name": "CinemaHallAdded",
      "type": "event"
    },
    {
      "anonymous": false,
      "inputs": [
        {
          "indexed": false,
          "internalType": "uint256",
          "name": "id",
          "type": "uint256"
        },
        {
          "indexed": false,
          "internalType": "uint256",
          "name": "locationId",
          "type": "uint256"
        },
        {
          "indexed": false,
          "internalType": "string",
          "name": "name",
          "type": "string"
        },
        {
          "indexed": false,
          "internalType": "bool",
          "name": "active",
          "type": "bool"
        }
      ],
      "name": "CinemaHallDeleted",
      "type": "event"
    },
    {
      "anonymous": false,
      "inputs": [
        {
          "indexed": false,
          "internalType": "uint256",
          "name": "id",
          "type": "uint256"
        },
        {
          "indexed": false,
          "internalType": "string",
          "name": "name",
          "type": "string"
        },
        {
          "indexed": false,
          "internalType": "bool",
          "name": "active",
          "type": "bool"
        }
      ],
      "name": "LocationAdded",
      "type": "event"
    },
    {
      "anonymous": false,
      "inputs": [
        {
          "indexed": false,
          "internalType": "uint256",
          "name": "id",
          "type": "uint256"
        },
        {
          "indexed": false,
          "internalType": "string",
          "name": "name",
          "type": "string"
        },
        {
          "indexed": false,
          "internalType": "bool",
          "name": "active",
          "type": "bool"
        }
      ],
      "name": "LocationDeleted",
      "type": "event"
    },
    {
      "anonymous": false,
      "inputs": [
        {
          "indexed": false,
          "internalType": "uint256",
          "name": "id",
          "type": "uint256"
        },
        {
          "indexed": false,
          "internalType": "uint256",
          "name": "cinemaHallId",
          "type": "uint256"
        },
        {
          "indexed": false,
          "internalType": "string",
          "name": "name",
          "type": "string"
        },
        {
          "indexed": false,
          "internalType": "uint256",
          "name": "startDate",
          "type": "uint256"
        },
        {
          "indexed": false,
          "internalType": "uint256",
          "name": "endDate",
          "type": "uint256"
        },
        {
          "indexed": false,
          "internalType": "uint256",
          "name": "startTime",
          "type": "uint256"
        },
        {
          "indexed": false,
          "internalType": "uint256",
          "name": "totalTime",
          "type": "uint256"
        },
        {
          "indexed": false,
          "internalType": "bool",
          "name": "active",
          "type": "bool"
        }
      ],
      "name": "MovieAdded",
      "type": "event"
    },
    {
      "anonymous": false,
      "inputs": [
        {
          "indexed": false,
          "internalType": "uint256",
          "name": "bookingId",
          "type": "uint256"
        },
        {
          "indexed": false,
          "internalType": "uint256",
          "name": "userId",
          "type": "uint256"
        },
        {
          "indexed": false,
          "internalType": "uint256",
          "name": "movieId",
          "type": "uint256"
        },
        {
          "indexed": false,
          "internalType": "uint256",
          "name": "cinemaHallID",
          "type": "uint256"
        },
        {
          "indexed": false,
          "internalType": "uint256",
          "name": "date",
          "type": "uint256"
        },
        {
          "indexed": false,
          "internalType": "uint256",
          "name": "startTime",
          "type": "uint256"
        },
        {
          "indexed": false,
          "internalType": "bool",
          "name": "cancelled",
          "type": "bool"
        }
      ],
      "name": "MovieBooked",
      "type": "event"
    },
    {
      "anonymous": false,
      "inputs": [
        {
          "indexed": false,
          "internalType": "uint256",
          "name": "bookingId",
          "type": "uint256"
        },
        {
          "indexed": false,
          "internalType": "uint256",
          "name": "userId",
          "type": "uint256"
        },
        {
          "indexed": false,
          "internalType": "uint256",
          "name": "movieId",
          "type": "uint256"
        },
        {
          "indexed": false,
          "internalType": "uint256",
          "name": "date",
          "type": "uint256"
        },
        {
          "indexed": false,
          "internalType": "bool",
          "name": "cancelled",
          "type": "bool"
        }
      ],
      "name": "MovieBookingCancelled",
      "type": "event"
    },
    {
      "anonymous": false,
      "inputs": [
        {
          "indexed": false,
          "internalType": "uint256",
          "name": "id",
          "type": "uint256"
        },
        {
          "indexed": false,
          "internalType": "uint256",
          "name": "cinemaHallId",
          "type": "uint256"
        },
        {
          "indexed": false,
          "internalType": "string",
          "name": "name",
          "type": "string"
        },
        {
          "indexed": false,
          "internalType": "uint256",
          "name": "startDate",
          "type": "uint256"
        },
        {
          "indexed": false,
          "internalType": "uint256",
          "name": "endDate",
          "type": "uint256"
        },
        {
          "indexed": false,
          "internalType": "uint256",
          "name": "startTime",
          "type": "uint256"
        },
        {
          "indexed": false,
          "internalType": "uint256",
          "name": "totalTime",
          "type": "uint256"
        },
        {
          "indexed": false,
          "internalType": "bool",
          "name": "active",
          "type": "bool"
        }
      ],
      "name": "MovieDeleted",
      "type": "event"
    },
    {
      "anonymous": false,
      "inputs": [
        {
          "indexed": false,
          "internalType": "uint256",
          "name": "id",
          "type": "uint256"
        },
        {
          "indexed": false,
          "internalType": "uint256",
          "name": "cinemaHallId",
          "type": "uint256"
        },
        {
          "indexed": false,
          "internalType": "string",
          "name": "name",
          "type": "string"
        },
        {
          "indexed": false,
          "internalType": "uint256",
          "name": "startDate",
          "type": "uint256"
        },
        {
          "indexed": false,
          "internalType": "uint256",
          "name": "endDate",
          "type": "uint256"
        },
        {
          "indexed": false,
          "internalType": "uint256",
          "name": "startTime",
          "type": "uint256"
        },
        {
          "indexed": false,
          "internalType": "uint256",
          "name": "totalTime",
          "type": "uint256"
        },
        {
          "indexed": false,
          "internalType": "bool",
          "name": "active",
          "type": "bool"
        }
      ],
      "name": "MovieUpdated",
      "type": "event"
    },
    {
      "anonymous": false,
      "inputs": [
        {
          "indexed": false,
          "internalType": "uint256",
          "name": "id",
          "type": "uint256"
        },
        {
          "indexed": false,
          "internalType": "string",
          "name": "name",
          "type": "string"
        },
        {
          "indexed": false,
          "internalType": "string",
          "name": "email",
          "type": "string"
        },
        {
          "indexed": false,
          "internalType": "string",
          "name": "password",
          "type": "string"
        }
      ],
      "name": "NewUserAdded",
      "type": "event"
    },
    {
      "anonymous": false,
      "inputs": [
        {
          "indexed": false,
          "internalType": "uint256",
          "name": "reviewId",
          "type": "uint256"
        },
        {
          "indexed": false,
          "internalType": "uint256",
          "name": "userId",
          "type": "uint256"
        },
        {
          "indexed": false,
          "internalType": "uint256",
          "name": "movieId",
          "type": "uint256"
        },
        {
          "indexed": false,
          "internalType": "uint256",
          "name": "rating",
          "type": "uint256"
        },
        {
          "indexed": false,
          "internalType": "string",
          "name": "review",
          "type": "string"
        }
      ],
      "name": "ReviewAdded",
      "type": "event"
    },
    {
      "constant": true,
      "inputs": [],
      "name": "bookingNumber",
      "outputs": [
        {
          "internalType": "uint256",
          "name": "",
          "type": "uint256"
        }
      ],
      "payable": false,
      "stateMutability": "view",
      "type": "function"
    },
    {
      "constant": true,
      "inputs": [],
      "name": "checkInCheckOutNumber",
      "outputs": [
        {
          "internalType": "uint256",
          "name": "",
          "type": "uint256"
        }
      ],
      "payable": false,
      "stateMutability": "view",
      "type": "function"
    },
    {
      "constant": true,
      "inputs": [],
      "name": "cinemaHallNumber",
      "outputs": [
        {
          "internalType": "uint256",
          "name": "",
          "type": "uint256"
        }
      ],
      "payable": false,
      "stateMutability": "view",
      "type": "function"
    },
    {
      "constant": true,
      "inputs": [
        {
          "internalType": "uint256",
          "name": "",
          "type": "uint256"
        }
      ],
      "name": "cinemaHalls",
      "outputs": [
        {
          "internalType": "uint256",
          "name": "id",
          "type": "uint256"
        },
        {
          "internalType": "uint256",
          "name": "locationId",
          "type": "uint256"
        },
        {
          "internalType": "string",
          "name": "name",
          "type": "string"
        },
        {
          "internalType": "bool",
          "name": "active",
          "type": "bool"
        }
      ],
      "payable": false,
      "stateMutability": "view",
      "type": "function"
    },
    {
      "constant": true,
      "inputs": [],
      "name": "companyName",
      "outputs": [
        {
          "internalType": "string",
          "name": "",
          "type": "string"
        }
      ],
      "payable": false,
      "stateMutability": "view",
      "type": "function"
    },
    {
      "constant": true,
      "inputs": [],
      "name": "locationNumber",
      "outputs": [
        {
          "internalType": "uint256",
          "name": "",
          "type": "uint256"
        }
      ],
      "payable": false,
      "stateMutability": "view",
      "type": "function"
    },
    {
      "constant": true,
      "inputs": [
        {
          "internalType": "uint256",
          "name": "",
          "type": "uint256"
        }
      ],
      "name": "locations",
      "outputs": [
        {
          "internalType": "uint256",
          "name": "id",
          "type": "uint256"
        },
        {
          "internalType": "string",
          "name": "name",
          "type": "string"
        },
        {
          "internalType": "bool",
          "name": "active",
          "type": "bool"
        }
      ],
      "payable": false,
      "stateMutability": "view",
      "type": "function"
    },
    {
      "constant": true,
      "inputs": [
        {
          "internalType": "uint256",
          "name": "",
          "type": "uint256"
        }
      ],
      "name": "movieBookings",
      "outputs": [
        {
          "internalType": "uint256",
          "name": "bookingId",
          "type": "uint256"
        },
        {
          "internalType": "uint256",
          "name": "userId",
          "type": "uint256"
        },
        {
          "internalType": "uint256",
          "name": "movieId",
          "type": "uint256"
        },
        {
          "internalType": "uint256",
          "name": "cinemaHallID",
          "type": "uint256"
        },
        {
          "internalType": "uint256",
          "name": "date",
          "type": "uint256"
        },
        {
          "internalType": "uint256",
          "name": "startTime",
          "type": "uint256"
        },
        {
          "internalType": "bool",
          "name": "cancelled",
          "type": "bool"
        }
      ],
      "payable": false,
      "stateMutability": "view",
      "type": "function"
    },
    {
      "constant": true,
      "inputs": [],
      "name": "movieNumber",
      "outputs": [
        {
          "internalType": "uint256",
          "name": "",
          "type": "uint256"
        }
      ],
      "payable": false,
      "stateMutability": "view",
      "type": "function"
    },
    {
      "constant": true,
      "inputs": [
        {
          "internalType": "uint256",
          "name": "",
          "type": "uint256"
        }
      ],
      "name": "movies",
      "outputs": [
        {
          "internalType": "uint256",
          "name": "id",
          "type": "uint256"
        },
        {
          "internalType": "uint256",
          "name": "cinemaHallId",
          "type": "uint256"
        },
        {
          "internalType": "string",
          "name": "name",
          "type": "string"
        },
        {
          "internalType": "uint256",
          "name": "startDate",
          "type": "uint256"
        },
        {
          "internalType": "uint256",
          "name": "endDate",
          "type": "uint256"
        },
        {
          "internalType": "uint256",
          "name": "startTime",
          "type": "uint256"
        },
        {
          "internalType": "uint256",
          "name": "totalTime",
          "type": "uint256"
        },
        {
          "internalType": "bool",
          "name": "active",
          "type": "bool"
        }
      ],
      "payable": false,
      "stateMutability": "view",
      "type": "function"
    },
    {
      "constant": true,
      "inputs": [],
      "name": "owner",
      "outputs": [
        {
          "internalType": "address payable",
          "name": "",
          "type": "address"
        }
      ],
      "payable": false,
      "stateMutability": "view",
      "type": "function"
    },
    {
      "constant": true,
      "inputs": [],
      "name": "reviewNumber",
      "outputs": [
        {
          "internalType": "uint256",
          "name": "",
          "type": "uint256"
        }
      ],
      "payable": false,
      "stateMutability": "view",
      "type": "function"
    },
    {
      "constant": true,
      "inputs": [
        {
          "internalType": "uint256",
          "name": "",
          "type": "uint256"
        }
      ],
      "name": "reviews",
      "outputs": [
        {
          "internalType": "uint256",
          "name": "reviewId",
          "type": "uint256"
        },
        {
          "internalType": "uint256",
          "name": "userId",
          "type": "uint256"
        },
        {
          "internalType": "uint256",
          "name": "movieId",
          "type": "uint256"
        },
        {
          "internalType": "uint256",
          "name": "rating",
          "type": "uint256"
        },
        {
          "internalType": "string",
          "name": "review",
          "type": "string"
        }
      ],
      "payable": false,
      "stateMutability": "view",
      "type": "function"
    },
    {
      "constant": true,
      "inputs": [
        {
          "internalType": "uint256",
          "name": "",
          "type": "uint256"
        }
      ],
      "name": "userCheckInCheckouts",
      "outputs": [
        {
          "internalType": "uint256",
          "name": "cid",
          "type": "uint256"
        },
        {
          "internalType": "uint256",
          "name": "userId",
          "type": "uint256"
        },
        {
          "internalType": "uint256",
          "name": "movieId",
          "type": "uint256"
        },
        {
          "internalType": "uint256",
          "name": "checkInTime",
          "type": "uint256"
        },
        {
          "internalType": "uint256",
          "name": "checkOutTime",
          "type": "uint256"
        }
      ],
      "payable": false,
      "stateMutability": "view",
      "type": "function"
    },
    {
      "constant": true,
      "inputs": [
        {
          "internalType": "uint256",
          "name": "",
          "type": "uint256"
        }
      ],
      "name": "userDetails",
      "outputs": [
        {
          "internalType": "uint256",
          "name": "id",
          "type": "uint256"
        },
        {
          "internalType": "string",
          "name": "name",
          "type": "string"
        },
        {
          "internalType": "string",
          "name": "email",
          "type": "string"
        },
        {
          "internalType": "string",
          "name": "password",
          "type": "string"
        }
      ],
      "payable": false,
      "stateMutability": "view",
      "type": "function"
    },
    {
      "constant": true,
      "inputs": [],
      "name": "userNumber",
      "outputs": [
        {
          "internalType": "uint256",
          "name": "",
          "type": "uint256"
        }
      ],
      "payable": false,
      "stateMutability": "view",
      "type": "function"
    },
    {
      "constant": false,
      "inputs": [
        {
          "internalType": "string",
          "name": "_locationName",
          "type": "string"
        }
      ],
      "name": "addLocation",
      "outputs": [],
      "payable": false,
      "stateMutability": "nonpayable",
      "type": "function"
    },
    {
      "constant": false,
      "inputs": [
        {
          "internalType": "uint256",
          "name": "_id",
          "type": "uint256"
        }
      ],
      "name": "deleteLocation",
      "outputs": [],
      "payable": false,
      "stateMutability": "nonpayable",
      "type": "function"
    },
    {
      "constant": false,
      "inputs": [
        {
          "internalType": "string",
          "name": "_name",
          "type": "string"
        },
        {
          "internalType": "uint256",
          "name": "_locationID",
          "type": "uint256"
        }
      ],
      "name": "addCinemaHall",
      "outputs": [],
      "payable": false,
      "stateMutability": "nonpayable",
      "type": "function"
    },
    {
      "constant": false,
      "inputs": [
        {
          "internalType": "uint256",
          "name": "_id",
          "type": "uint256"
        }
      ],
      "name": "deleteCinemaHall",
      "outputs": [],
      "payable": false,
      "stateMutability": "nonpayable",
      "type": "function"
    },
    {
      "constant": false,
      "inputs": [
        {
          "internalType": "string",
          "name": "_name",
          "type": "string"
        },
        {
          "internalType": "uint256",
          "name": "_cinemaHallID",
          "type": "uint256"
        },
        {
          "internalType": "uint256",
          "name": "_startDate",
          "type": "uint256"
        },
        {
          "internalType": "uint256",
          "name": "_endDate",
          "type": "uint256"
        },
        {
          "internalType": "uint256",
          "name": "_startTime",
          "type": "uint256"
        },
        {
          "internalType": "uint256",
          "name": "_totalTime",
          "type": "uint256"
        }
      ],
      "name": "addMovie",
      "outputs": [],
      "payable": false,
      "stateMutability": "nonpayable",
      "type": "function"
    },
    {
      "constant": false,
      "inputs": [
        {
          "internalType": "uint256",
          "name": "_id",
          "type": "uint256"
        }
      ],
      "name": "removeMovie",
      "outputs": [],
      "payable": false,
      "stateMutability": "nonpayable",
      "type": "function"
    },
    {
      "constant": false,
      "inputs": [
        {
          "internalType": "uint256",
          "name": "_id",
          "type": "uint256"
        },
        {
          "internalType": "uint256",
          "name": "_startDate",
          "type": "uint256"
        },
        {
          "internalType": "uint256",
          "name": "_endDate",
          "type": "uint256"
        },
        {
          "internalType": "uint256",
          "name": "_startTime",
          "type": "uint256"
        },
        {
          "internalType": "uint256",
          "name": "_totalTime",
          "type": "uint256"
        }
      ],
      "name": "updateMovie",
      "outputs": [],
      "payable": false,
      "stateMutability": "nonpayable",
      "type": "function"
    },
    {
      "constant": false,
      "inputs": [
        {
          "internalType": "string",
          "name": "_name",
          "type": "string"
        },
        {
          "internalType": "string",
          "name": "_email",
          "type": "string"
        },
        {
          "internalType": "string",
          "name": "_password",
          "type": "string"
        }
      ],
      "name": "signUp",
      "outputs": [],
      "payable": false,
      "stateMutability": "nonpayable",
      "type": "function"
    },
    {
      "constant": false,
      "inputs": [
        {
          "internalType": "uint256",
          "name": "_userId",
          "type": "uint256"
        },
        {
          "internalType": "uint256",
          "name": "_movieId",
          "type": "uint256"
        },
        {
          "internalType": "uint256",
          "name": "_cinemaHallId",
          "type": "uint256"
        },
        {
          "internalType": "uint256",
          "name": "_date",
          "type": "uint256"
        },
        {
          "internalType": "uint256",
          "name": "_time",
          "type": "uint256"
        }
      ],
      "name": "bookMovieTicket",
      "outputs": [],
      "payable": true,
      "stateMutability": "payable",
      "type": "function"
    },
    {
      "constant": false,
      "inputs": [
        {
          "internalType": "uint256",
          "name": "_userId",
          "type": "uint256"
        },
        {
          "internalType": "uint256",
          "name": "_movieId",
          "type": "uint256"
        }
      ],
      "name": "cancelMovieTicket",
      "outputs": [],
      "payable": true,
      "stateMutability": "payable",
      "type": "function"
    },
    {
      "constant": false,
      "inputs": [
        {
          "internalType": "uint256",
          "name": "_userId",
          "type": "uint256"
        },
        {
          "internalType": "uint256",
          "name": "_movieId",
          "type": "uint256"
        },
        {
          "internalType": "uint256",
          "name": "_checkInTime",
          "type": "uint256"
        }
      ],
      "name": "checkIn",
      "outputs": [],
      "payable": false,
      "stateMutability": "nonpayable",
      "type": "function"
    },
    {
      "constant": false,
      "inputs": [
        {
          "internalType": "uint256",
          "name": "_userId",
          "type": "uint256"
        },
        {
          "internalType": "uint256",
          "name": "_movieId",
          "type": "uint256"
        },
        {
          "internalType": "uint256",
          "name": "_checkOutTime",
          "type": "uint256"
        },
        {
          "internalType": "string",
          "name": "_review",
          "type": "string"
        }
      ],
      "name": "checkOut",
      "outputs": [],
      "payable": false,
      "stateMutability": "nonpayable",
      "type": "function"
    },
    {
      "constant": false,
      "inputs": [
        {
          "internalType": "uint256",
          "name": "_userId",
          "type": "uint256"
        },
        {
          "internalType": "uint256",
          "name": "_movieId",
          "type": "uint256"
        },
        {
          "internalType": "uint256",
          "name": "_checkInTime",
          "type": "uint256"
        },
        {
          "internalType": "uint256",
          "name": "_checkOutTime",
          "type": "uint256"
        },
        {
          "internalType": "uint256",
          "name": "movieLength",
          "type": "uint256"
        },
        {
          "internalType": "string",
          "name": "_review",
          "type": "string"
        }
      ],
      "name": "calculateRatingBasedOnTime",
      "outputs": [],
      "payable": false,
      "stateMutability": "nonpayable",
      "type": "function"
    }
  ],
  "bytecode": "0x608060405260006002556000600355600060045560006005556000600655600060075560006008553480156200003457600080fd5b506040518060400160405280601081526020017f43696e65506c617a61204d6f76696573000000000000000000000000000000008152506000908051906020019062000082929190620000ca565b5033600160006101000a81548173ffffffffffffffffffffffffffffffffffffffff021916908373ffffffffffffffffffffffffffffffffffffffff16021790555062000179565b828054600181600116156101000203166002900490600052602060002090601f016020900481019282601f106200010d57805160ff19168380011785556200013e565b828001600101855582156200013e579182015b828111156200013d57825182559160200191906001019062000120565b5b5090506200014d919062000151565b5090565b6200017691905b808211156200017257600081600090555060010162000158565b5090565b90565b6153d580620001896000396000f3fe6080604052600436106101c25760003560e01c80638505198c116100f7578063bd9cb09e11610095578063edf030df11610064578063edf030df146110b1578063f517504e146110dc578063f5ec2eed14611132578063f7cfaab5146111c2576101c2565b8063bd9cb09e14610d48578063c8a89d0714610d80578063cb2b6f1414610deb578063e83ddcea14610fe1576101c2565b80638da5cb5b116100d15780638da5cb5b146109c6578063a9cad37b14610a1d578063aa4baaf114610bb0578063b9e0db3514610c82576101c2565b80638505198c1461079757806386f51ca0146108915780638a3e1636146108cc576101c2565b80634ffa7dca11610164578063621ea8541161013e578063621ea854146105d35780637033f4071461062257806374385d621461064d5780637ccdc65b146106ca576101c2565b80634ffa7dca146104a5578063514ef336146104e05780635fddb0881461050b576101c2565b80632f34d887116101a05780632f34d8871461033b578063394c0c7a146103665780633d0c7f8014610391578063404ebf6c146103bc576101c2565b80630e0c9791146101c75780632b23f0a71461022a5780632b4e841314610310575b600080fd5b3480156101d357600080fd5b50610228600480360360a08110156101ea57600080fd5b8101908080359060200190929190803590602001909291908035906020019092919080359060200190929190803590602001909291905050506111fd565b005b34801561023657600080fd5b5061030e6004803603608081101561024d57600080fd5b810190808035906020019092919080359060200190929190803590602001909291908035906020019064010000000081111561028857600080fd5b82018360208201111561029a57600080fd5b803590602001918460018302840111640100000000831117156102bc57600080fd5b91908080601f016020809104026020016040519081016040528093929190818152602001838380828437600081840152601f19601f8201169050808301925050505050505091929192905050506116d2565b005b34801561031c57600080fd5b50610325611d52565b6040518082815260200191505060405180910390f35b34801561034757600080fd5b50610350611d58565b6040518082815260200191505060405180910390f35b34801561037257600080fd5b5061037b611d5e565b6040518082815260200191505060405180910390f35b34801561039d57600080fd5b506103a6611d64565b6040518082815260200191505060405180910390f35b3480156103c857600080fd5b506103f5600480360360208110156103df57600080fd5b8101908080359060200190929190505050611d6a565b604051808981526020018881526020018060200187815260200186815260200185815260200184815260200183151515158152602001828103825288818151815260200191508051906020019080838360005b83811015610463578082015181840152602081019050610448565b50505050905090810190601f1680156104905780820380516001836020036101000a031916815260200191505b50995050505050505050505060405180910390f35b3480156104b157600080fd5b506104de600480360360208110156104c857600080fd5b8101908080359060200190929190505050611e57565b005b3480156104ec57600080fd5b506104f5612219565b6040518082815260200191505060405180910390f35b34801561051757600080fd5b506105d16004803603602081101561052e57600080fd5b810190808035906020019064010000000081111561054b57600080fd5b82018360208201111561055d57600080fd5b8035906020019184600183028401116401000000008311171561057f57600080fd5b91908080601f016020809104026020016040519081016040528093929190818152602001838380828437600081840152601f19601f82011690508083019250505050505050919291929050505061221f565b005b3480156105df57600080fd5b50610620600480360360608110156105f657600080fd5b810190808035906020019092919080359060200190929190803590602001909291905050506124eb565b005b34801561062e57600080fd5b50610637612ac2565b6040518082815260200191505060405180910390f35b34801561065957600080fd5b506106866004803603602081101561067057600080fd5b8101908080359060200190929190505050612ac8565b604051808881526020018781526020018681526020018581526020018481526020018381526020018215151515815260200197505050505050505060405180910390f35b3480156106d657600080fd5b50610703600480360360208110156106ed57600080fd5b8101908080359060200190929190505050612b17565b604051808581526020018481526020018060200183151515158152602001828103825284818151815260200191508051906020019080838360005b8381101561075957808201518184015260208101905061073e565b50505050905090810190601f1680156107865780820380516001836020036101000a031916815260200191505b509550505050505060405180910390f35b3480156107a357600080fd5b5061088f600480360360c08110156107ba57600080fd5b81019080803590602001906401000000008111156107d757600080fd5b8201836020820111156107e957600080fd5b8035906020019184600183028401116401000000008311171561080b57600080fd5b91908080601f016020809104026020016040519081016040528093929190818152602001838380828437600081840152601f19601f8201169050808301925050505050505091929192908035906020019092919080359060200190929190803590602001909291908035906020019092919080359060200190929190505050612bec565b005b34801561089d57600080fd5b506108ca600480360360208110156108b457600080fd5b81019080803590602001909291905050506131ea565b005b3480156108d857600080fd5b506109c4600480360360c08110156108ef57600080fd5b8101908080359060200190929190803590602001909291908035906020019092919080359060200190929190803590602001909291908035906020019064010000000081111561093e57600080fd5b82018360208201111561095057600080fd5b8035906020019184600183028401116401000000008311171561097257600080fd5b91908080601f016020809104026020016040519081016040528093929190818152602001838380828437600081840152601f19601f82011690508083019250505050505050919291929050505061350e565b005b3480156109d257600080fd5b506109db613690565b604051808273ffffffffffffffffffffffffffffffffffffffff1673ffffffffffffffffffffffffffffffffffffffff16815260200191505060405180910390f35b348015610a2957600080fd5b50610a5660048036036020811015610a4057600080fd5b81019080803590602001909291905050506136b6565b60405180858152602001806020018060200180602001848103845287818151815260200191508051906020019080838360005b83811015610aa4578082015181840152602081019050610a89565b50505050905090810190601f168015610ad15780820380516001836020036101000a031916815260200191505b50848103835286818151815260200191508051906020019080838360005b83811015610b0a578082015181840152602081019050610aef565b50505050905090810190601f168015610b375780820380516001836020036101000a031916815260200191505b50848103825285818151815260200191508051906020019080838360005b83811015610b70578082015181840152602081019050610b55565b50505050905090810190601f168015610b9d5780820380516001836020036101000a031916815260200191505b5097505050505050505060405180910390f35b348015610bbc57600080fd5b50610c8060048036036040811015610bd357600080fd5b8101908080359060200190640100000000811115610bf057600080fd5b820183602082011115610c0257600080fd5b80359060200191846001830284011164010000000083111715610c2457600080fd5b91908080601f016020809104026020016040519081016040528093929190818152602001838380828437600081840152601f19601f820116905080830192505050505050509192919290803590602001909291905050506138ae565b005b348015610c8e57600080fd5b50610cbb60048036036020811015610ca557600080fd5b8101908080359060200190929190505050613da7565b604051808481526020018060200183151515158152602001828103825284818151815260200191508051906020019080838360005b83811015610d0b578082015181840152602081019050610cf0565b50505050905090810190601f168015610d385780820380516001836020036101000a031916815260200191505b5094505050505060405180910390f35b610d7e60048036036040811015610d5e57600080fd5b810190808035906020019092919080359060200190929190505050613e76565b005b348015610d8c57600080fd5b50610db960048036036020811015610da357600080fd5b81019080803590602001909291905050506141b3565b604051808681526020018581526020018481526020018381526020018281526020019550505050505060405180910390f35b348015610df757600080fd5b50610fdf60048036036060811015610e0e57600080fd5b8101908080359060200190640100000000811115610e2b57600080fd5b820183602082011115610e3d57600080fd5b80359060200191846001830284011164010000000083111715610e5f57600080fd5b91908080601f016020809104026020016040519081016040528093929190818152602001838380828437600081840152601f19601f82011690508083019250505050505050919291929080359060200190640100000000811115610ec257600080fd5b820183602082011115610ed457600080fd5b80359060200191846001830284011164010000000083111715610ef657600080fd5b91908080601f016020809104026020016040519081016040528093929190818152602001838380828437600081840152601f19601f82011690508083019250505050505050919291929080359060200190640100000000811115610f5957600080fd5b820183602082011115610f6b57600080fd5b80359060200191846001830284011164010000000083111715610f8d57600080fd5b91908080601f016020809104026020016040519081016040528093929190818152602001838380828437600081840152601f19601f8201169050808301925050505050505091929192905050506141e9565b005b348015610fed57600080fd5b5061101a6004803603602081101561100457600080fd5b810190808035906020019092919050505061473b565b6040518086815260200185815260200184815260200183815260200180602001828103825283818151815260200191508051906020019080838360005b83811015611072578082015181840152602081019050611057565b50505050905090810190601f16801561109f5780820380516001836020036101000a031916815260200191505b50965050505050505060405180910390f35b3480156110bd57600080fd5b506110c6614809565b6040518082815260200191505060405180910390f35b611130600480360360a08110156110f257600080fd5b81019080803590602001909291908035906020019092919080359060200190929190803590602001909291908035906020019092919050505061480f565b005b34801561113e57600080fd5b50611147614d40565b6040518080602001828103825283818151815260200191508051906020019080838360005b8381101561118757808201518184015260208101905061116c565b50505050905090810190601f1680156111b45780820380516001836020036101000a031916815260200191505b509250505060405180910390f35b3480156111ce57600080fd5b506111fb600480360360208110156111e557600080fd5b8101908080359060200190929190505050614dde565b005b60008511801561120f57506004548511155b611281576040517f08c379a00000000000000000000000000000000000000000000000000000000081526004018080602001828103825260158152602001807f4d6f7669652073686f756c642062652076616c6964000000000000000000000081525060200191505060405180910390fd5b6112896150ff565b600b6000878152602001908152602001600020604051806101000160405290816000820154815260200160018201548152602001600282018054600181600116156101000203166002900480601f0160208091040260200160405190810160405280929190818152602001828054600181600116156101000203166002900480156113555780601f1061132a57610100808354040283529160200191611355565b820191906000526020600020905b81548152906001019060200180831161133857829003601f168201915b50505050508152602001600382015481526020016004820154815260200160058201548152602001600682015481526020016007820160009054906101000a900460ff1615151515815250509050600015158160e0015115151415611422576040517f08c379a00000000000000000000000000000000000000000000000000000000081526004018080602001828103825260208152602001807f4d6f7669652073746174757320697320616c726561647920696e61637469766581525060200191505060405180910390fd5b600085600b60008981526020019081526020016000206003015414801561145e575084600b600089815260200190815260200160002060040154145b801561147f575083600b600089815260200190815260200160002060050154145b80156114b2575060011515600b600089815260200190815260200160002060070160009054906101000a900460ff161515145b156114c05780806001019150505b60008114611519576040517f08c379a00000000000000000000000000000000000000000000000000000000081526004018080602001828103825260268152602001806152f36026913960400191505060405180910390fd5b8582606001818152505084826080018181525050838260a0018181525050828260c001818152505081600b600089815260200190815260200160002060008201518160000155602082015181600101556040820151816002019080519060200190611585929190615146565b50606082015181600301556080820151816004015560a0820151816005015560c0820151816006015560e08201518160070160006101000a81548160ff0219169083151502179055509050507f3554720980b08493712c791afdc104aae587306abd092ca70d953369d68e9467826000015183602001518460400151856060015186608001518760a001518860c001518960e00151604051808981526020018881526020018060200187815260200186815260200185815260200184815260200183151515158152602001828103825288818151815260200191508051906020019080838360005b8381101561168857808201518184015260208101905061166d565b50505050905090810190601f1680156116b55780820380516001836020036101000a031916815260200191505b50995050505050505050505060405180910390a150505050505050565b6000841180156116e457506005548411155b611756576040517f08c379a00000000000000000000000000000000000000000000000000000000081526004018080602001828103825260148152602001807f557365722073686f756c642062652076616c696400000000000000000000000081525060200191505060405180910390fd5b60008311801561176857506004548311155b6117da576040517f08c379a00000000000000000000000000000000000000000000000000000000081526004018080602001828103825260158152602001807f4d6f7669652073686f756c642062652076616c6964000000000000000000000081525060200191505060405180910390fd5b6117e26150ff565b600b6000858152602001908152602001600020604051806101000160405290816000820154815260200160018201548152602001600282018054600181600116156101000203166002900480601f0160208091040260200160405190810160405280929190818152602001828054600181600116156101000203166002900480156118ae5780601f10611883576101008083540402835291602001916118ae565b820191906000526020600020905b81548152906001019060200180831161189157829003601f168201915b50505050508152602001600382015481526020016004820154815260200160058201548152602001600682015481526020016007820160009054906101000a900460ff1615151515815250509050600015158160e001511515141561197b576040517f08c379a00000000000000000000000000000000000000000000000000000000081526004018080602001828103825260198152602001807f4d6f766965207374617475732069732020696e6163746976650000000000000081525060200191505060405180910390fd5b600080600190505b60065481116119dc5786600d6000838152602001908152602001600020600101541480156119c6575085600d600083815260200190815260200160002060020154145b156119cf578091505b8080600101915050611983565b506119e56151c6565b600d60008381526020019081526020016000206040518060e00160405290816000820154815260200160018201548152602001600282015481526020016003820154815260200160048201548152602001600582015481526020016006820160009054906101000a900460ff1615151515815250509050600115158160c0015115151415611abe576040517f08c379a000000000000000000000000000000000000000000000000000000000815260040180806020018281038252602281526020018061537f6022913960400191505060405180910390fd5b60008090506000600190505b6007548111611b235788600e600083815260200190815260200160002060010154148015611b0d575087600e600083815260200190815260200160002060020154145b15611b16578091505b8080600101915050611aca565b506000811415611b9b576040517f08c379a00000000000000000000000000000000000000000000000000000000081526004018080602001828103825260178152602001807f5573657220686173206e6f7420636865636b656420696e00000000000000000081525060200191505060405180910390fd5b6000600e60008381526020019081526020016000206004015414611c27576040517f08c379a000000000000000000000000000000000000000000000000000000000815260040180806020018281038252601c8152602001807f557365722068617320616c726561647920636865636b6564206f75740000000081525060200191505060405180910390fd5b611c2f615205565b600e60008381526020019081526020016000206040518060a00160405290816000820154815260200160018201548152602001600282015481526020016003820154815260200160048201548152505090508681608001818152505080600e60008481526020019081526020016000206000820151816000015560208201518160010155604082015181600201556060820151816003015560808201518160040155905050600081606001519050611cef8a8a838b8a60c001518c61350e565b7f1187aac33401b688809070c0a6f3b00356494285e305ad860551493b082c2ee9838b8b848c604051808681526020018581526020018481526020018381526020018281526020019550505050505060405180910390a150505050505050505050565b60055481565b60025481565b60085481565b60075481565b600b602052806000526040600020600091509050806000015490806001015490806002018054600181600116156101000203166002900480601f016020809104026020016040519081016040528092919081815260200182805460018160011615610100020316600290048015611e225780601f10611df757610100808354040283529160200191611e22565b820191906000526020600020905b815481529060010190602001808311611e0557829003601f168201915b5050505050908060030154908060040154908060050154908060060154908060070160009054906101000a900460ff16905088565b600081118015611e6957506004548111155b611edb576040517f08c379a00000000000000000000000000000000000000000000000000000000081526004018080602001828103825260158152602001807f4d6f7669652073686f756c642062652076616c6964000000000000000000000081525060200191505060405180910390fd5b611ee36150ff565b600b6000838152602001908152602001600020604051806101000160405290816000820154815260200160018201548152602001600282018054600181600116156101000203166002900480601f016020809104026020016040519081016040528092919081815260200182805460018160011615610100020316600290048015611faf5780601f10611f8457610100808354040283529160200191611faf565b820191906000526020600020905b815481529060010190602001808311611f9257829003601f168201915b50505050508152602001600382015481526020016004820154815260200160058201548152602001600682015481526020016007820160009054906101000a900460ff1615151515815250509050600015158160e001511515141561207c576040517f08c379a00000000000000000000000000000000000000000000000000000000081526004018080602001828103825260208152602001807f4d6f7669652073746174757320697320616c726561647920696e61637469766581525060200191505060405180910390fd5b60008160e001901515908115158152505080600b6000848152602001908152602001600020600082015181600001556020820151816001015560408201518160020190805190602001906120d1929190615146565b50606082015181600301556080820151816004015560a0820151816005015560c0820151816006015560e08201518160070160006101000a81548160ff0219169083151502179055509050507f01c45e26304c7dc01014f021688978f14b406649170ac249875a143fcb1ca963816000015182602001518360400151846060015185608001518660a001518760c001518860e00151604051808981526020018881526020018060200187815260200186815260200185815260200184815260200183151515158152602001828103825288818151815260200191508051906020019080838360005b838110156121d45780820151818401526020810190506121b9565b50505050905090810190601f1680156122015780820380516001836020036101000a031916815260200191505b50995050505050505050505060405180910390a15050565b60065481565b6000815111612296576040517f08c379a000000000000000000000000000000000000000000000000000000000815260040180806020018281038252601b8152602001807f4c6f636174696f6e2773206e616d65206973207265717569726564000000000081525060200191505060405180910390fd5b600080600190505b60025481116123495782805190602001206009600083815260200190815260200160002060010160405180828054600181600116156101000203166002900480156123205780601f106122fe576101008083540402835291820191612320565b820191906000526020600020905b81548152906001019060200180831161230c575b50509150506040518091039020141561233c5781806001019250505b808060010191505061229e565b50600081146123a3576040517f08c379a00000000000000000000000000000000000000000000000000000000081526004018080602001828103825260258152602001806152a76025913960400191505060405180910390fd5b6002600081548092919060010191905055506040518060600160405280600254815260200183815260200160011515815250600960006002548152602001908152602001600020600082015181600001556020820151816001019080519060200190612410929190615146565b5060408201518160020160006101000a81548160ff0219169083151502179055509050507f66b827cdfa4512e1f955bee9252d2b43a1ca0ecf1064ecb717033738516f665f600254836001604051808481526020018060200183151515158152602001828103825284818151815260200191508051906020019080838360005b838110156124ab578082015181840152602081019050612490565b50505050905090810190601f1680156124d85780820380516001836020036101000a031916815260200191505b5094505050505060405180910390a15050565b6000831180156124fd57506005548311155b61256f576040517f08c379a00000000000000000000000000000000000000000000000000000000081526004018080602001828103825260148152602001807f557365722073686f756c642062652076616c696400000000000000000000000081525060200191505060405180910390fd5b60008211801561258157506004548211155b6125f3576040517f08c379a00000000000000000000000000000000000000000000000000000000081526004018080602001828103825260158152602001807f4d6f7669652073686f756c642062652076616c6964000000000000000000000081525060200191505060405180910390fd5b6125fb6150ff565b600b6000848152602001908152602001600020604051806101000160405290816000820154815260200160018201548152602001600282018054600181600116156101000203166002900480601f0160208091040260200160405190810160405280929190818152602001828054600181600116156101000203166002900480156126c75780601f1061269c576101008083540402835291602001916126c7565b820191906000526020600020905b8154815290600101906020018083116126aa57829003601f168201915b50505050508152602001600382015481526020016004820154815260200160058201548152602001600682015481526020016007820160009054906101000a900460ff1615151515815250509050600015158160e0015115151415612794576040517f08c379a00000000000000000000000000000000000000000000000000000000081526004018080602001828103825260198152602001807f4d6f766965207374617475732069732020696e6163746976650000000000000081525060200191505060405180910390fd5b600080600190505b60065481116128285785600d6000838152602001908152602001600020600101541480156127df575084600d600083815260200190815260200160002060020154145b8015612812575060001515600d600083815260200190815260200160002060060160009054906101000a900460ff161515145b1561281b578091505b808060010191505061279c565b506128316151c6565b600d60008381526020019081526020016000206040518060e00160405290816000820154815260200160018201548152602001600282015481526020016003820154815260200160048201548152602001600582015481526020016006820160009054906101000a900460ff1615151515815250509050600115158160c001511515141561290a576040517f08c379a000000000000000000000000000000000000000000000000000000000815260040180806020018281038252602281526020018061537f6022913960400191505060405180910390fd5b600080600190505b600754811161296b5787600e600083815260200190815260200160002060010154148015612955575086600e600083815260200190815260200160002060020154145b1561295e578091505b8080600101915050612912565b50600081146129e2576040517f08c379a000000000000000000000000000000000000000000000000000000000815260040180806020018281038252601b8152602001807f557365722068617320616c726561647920636865636b656420696e000000000081525060200191505060405180910390fd5b6007600081548092919060010191905055506040518060a0016040528060075481526020018881526020018781526020018681526020016000815250600e6000600754815260200190815260200160002060008201518160000155602082015181600101556040820151816002015560608201518160030155608082015181600401559050507f2fef433127344dba0927c396981027c572c42a3cb7638d07fae9ae8f67cdb7d26007548888886040518085815260200184815260200183815260200182815260200194505050505060405180910390a150505050505050565b60045481565b600d6020528060005260406000206000915090508060000154908060010154908060020154908060030154908060040154908060050154908060060160009054906101000a900460ff16905087565b600a602052806000526040600020600091509050806000015490806001015490806002018054600181600116156101000203166002900480601f016020809104026020016040519081016040528092919081815260200182805460018160011615610100020316600290048015612bcf5780601f10612ba457610100808354040283529160200191612bcf565b820191906000526020600020905b815481529060010190602001808311612bb257829003601f168201915b5050505050908060030160009054906101000a900460ff16905084565b6000865111612c63576040517f08c379a00000000000000000000000000000000000000000000000000000000081526004018080602001828103825260188152602001807f4d6f7669652773206e616d65206973207265717569726564000000000000000081525060200191505060405180910390fd5b600085118015612c7557506003548511155b612ce7576040517f08c379a000000000000000000000000000000000000000000000000000000000815260040180806020018281038252601b8152602001807f43696e656d612048616c6c2073686f756c642062652076616c6964000000000081525060200191505060405180910390fd5b612cef615234565b600a60008781526020019081526020016000206040518060800160405290816000820154815260200160018201548152602001600282018054600181600116156101000203166002900480601f016020809104026020016040519081016040528092919081815260200182805460018160011615610100020316600290048015612dba5780601f10612d8f57610100808354040283529160200191612dba565b820191906000526020600020905b815481529060010190602001808311612d9d57829003601f168201915b505050505081526020016003820160009054906101000a900460ff161515151581525050905060001515816060015115151415612e5f576040517f08c379a000000000000000000000000000000000000000000000000000000000815260040180806020018281038252601e8152602001807f43696e656d612048616c6c2073746174757320697320696e616374697665000081525060200191505060405180910390fd5b600080600190505b6004548111612fc9578880519060200120600b60008381526020019081526020016000206002016040518082805460018160011615610100020316600290048015612ee95780601f10612ec7576101008083540402835291820191612ee9565b820191906000526020600020905b815481529060010190602001808311612ed5575b50509150506040518091039020148015612f18575087600b600083815260200190815260200160002060010154145b8015612f39575086600b600083815260200190815260200160002060030154145b8015612f5a575085600b600083815260200190815260200160002060040154145b8015612f7b575084600b600083815260200190815260200160002060050154145b8015612fae575060011515600b600083815260200190815260200160002060070160009054906101000a900460ff161515145b15612fbc5781806001019250505b8080600101915050612e67565b5060008114613023576040517f08c379a00000000000000000000000000000000000000000000000000000000081526004018080602001828103825260268152602001806152f36026913960400191505060405180910390fd5b600460008154809291906001019190505550604051806101000160405280600454815260200188815260200189815260200187815260200186815260200185815260200184815260200160011515815250600b60006004548152602001908152602001600020600082015181600001556020820151816001015560408201518160020190805190602001906130b9929190615146565b50606082015181600301556080820151816004015560a0820151816005015560c0820151816006015560e08201518160070160006101000a81548160ff0219169083151502179055509050507f75560d0d5327a26e610d2f69ef6f61b36db566d47a43e2f97aafb3cc04fe3d48600454888a898989896001604051808981526020018881526020018060200187815260200186815260200185815260200184815260200183151515158152602001828103825288818151815260200191508051906020019080838360005b8381101561319f578082015181840152602081019050613184565b50505050905090810190601f1680156131cc5780820380516001836020036101000a031916815260200191505b50995050505050505050505060405180910390a15050505050505050565b6000811180156131fc57506003548111155b61326e576040517f08c379a000000000000000000000000000000000000000000000000000000000815260040180806020018281038252601b8152602001807f43696e656d612048616c6c2073686f756c642062652076616c6964000000000081525060200191505060405180910390fd5b613276615234565b600a60008381526020019081526020016000206040518060800160405290816000820154815260200160018201548152602001600282018054600181600116156101000203166002900480601f0160208091040260200160405190810160405280929190818152602001828054600181600116156101000203166002900480156133415780601f1061331657610100808354040283529160200191613341565b820191906000526020600020905b81548152906001019060200180831161332457829003601f168201915b505050505081526020016003820160009054906101000a900460ff1615151515815250509050600015158160600151151514156133c9576040517f08c379a00000000000000000000000000000000000000000000000000000000081526004018080602001828103825260278152602001806152cc6027913960400191505060405180910390fd5b600081606001901515908115158152505080600a60008481526020019081526020016000206000820151816000015560208201518160010155604082015181600201908051906020019061341e929190615146565b5060608201518160030160006101000a81548160ff0219169083151502179055509050507f146105ab82af9006e6ac4cec93e0e6c953213e1783e393b87d918e60946c73988160000151826020015183604001518460600151604051808581526020018481526020018060200183151515158152602001828103825284818151815260200191508051906020019080838360005b838110156134cd5780820151818401526020810190506134b2565b50505050905090810190601f1680156134fa5780820380516001836020036101000a031916815260200191505b509550505050505060405180910390a15050565b60086000815480929190600101919050555060008061ea608686038161353057fe5b04905083600a82028161353f57fe5b0491506040518060a00160405280600854815260200189815260200188815260200183815260200184815250600f600060085481526020019081526020016000206000820151816000015560208201518160010155604082015181600201556060820151816003015560808201518160040190805190602001906135c4929190615146565b509050507f10af251a05d3190b8bd25ea1e652b22e94c2258997b23c9f9dcfa1c105f5ea3b600854898985876040518086815260200185815260200184815260200183815260200180602001828103825283818151815260200191508051906020019080838360005b8381101561364857808201518184015260208101905061362d565b50505050905090810190601f1680156136755780820380516001836020036101000a031916815260200191505b50965050505050505060405180910390a15050505050505050565b600160009054906101000a900473ffffffffffffffffffffffffffffffffffffffff1681565b600c602052806000526040600020600091509050806000015490806001018054600181600116156101000203166002900480601f0160208091040260200160405190810160405280929190818152602001828054600181600116156101000203166002900480156137685780601f1061373d57610100808354040283529160200191613768565b820191906000526020600020905b81548152906001019060200180831161374b57829003601f168201915b505050505090806002018054600181600116156101000203166002900480601f0160208091040260200160405190810160405280929190818152602001828054600181600116156101000203166002900480156138065780601f106137db57610100808354040283529160200191613806565b820191906000526020600020905b8154815290600101906020018083116137e957829003601f168201915b505050505090806003018054600181600116156101000203166002900480601f0160208091040260200160405190810160405280929190818152602001828054600181600116156101000203166002900480156138a45780601f10613879576101008083540402835291602001916138a4565b820191906000526020600020905b81548152906001019060200180831161388757829003601f168201915b5050505050905084565b6000825111613925576040517f08c379a000000000000000000000000000000000000000000000000000000000815260040180806020018281038252601e8152602001807f43696e656d612048616c6c2773206e616d65206973207265717569726564000081525060200191505060405180910390fd5b60008111801561393757506002548111155b6139a9576040517f08c379a00000000000000000000000000000000000000000000000000000000081526004018080602001828103825260188152602001807f4c6f636174696f6e2073686f756c642062652076616c6964000000000000000081525060200191505060405180910390fd5b6139b161525e565b6009600083815260200190815260200160002060405180606001604052908160008201548152602001600182018054600181600116156101000203166002900480601f016020809104026020016040519081016040528092919081815260200182805460018160011615610100020316600290048015613a725780601f10613a4757610100808354040283529160200191613a72565b820191906000526020600020905b815481529060010190602001808311613a5557829003601f168201915b505050505081526020016002820160009054906101000a900460ff161515151581525050905060001515816040015115151415613b17576040517f08c379a000000000000000000000000000000000000000000000000000000000815260040180806020018281038252601b8152602001807f4c6f636174696f6e2073746174757320697320696e616374697665000000000081525060200191505060405180910390fd5b600080600190505b6003548111613beb578480519060200120600a60008381526020019081526020016000206002016040518082805460018160011615610100020316600290048015613ba15780601f10613b7f576101008083540402835291820191613ba1565b820191906000526020600020905b815481529060010190602001808311613b8d575b50509150506040518091039020148015613bd0575083600a600083815260200190815260200160002060010154145b15613bde5781806001019250505b8080600101915050613b1f565b5060008114613c45576040517f08c379a000000000000000000000000000000000000000000000000000000000815260040180806020018281038252603e815260200180615319603e913960400191505060405180910390fd5b6003600081548092919060010191905055506040518060800160405280600354815260200184815260200185815260200160011515815250600a6000600354815260200190815260200160002060008201518160000155602082015181600101556040820151816002019080519060200190613cc2929190615146565b5060608201518160030160006101000a81548160ff0219169083151502179055509050507f02e87972eaacab007c30d435b6a2b146f6ff0f2ba5e03792dfe5c7c962167b6160035484866001604051808581526020018481526020018060200183151515158152602001828103825284818151815260200191508051906020019080838360005b83811015613d64578082015181840152602081019050613d49565b50505050905090810190601f168015613d915780820380516001836020036101000a031916815260200191505b509550505050505060405180910390a150505050565b6009602052806000526040600020600091509050806000015490806001018054600181600116156101000203166002900480601f016020809104026020016040519081016040528092919081815260200182805460018160011615610100020316600290048015613e595780601f10613e2e57610100808354040283529160200191613e59565b820191906000526020600020905b815481529060010190602001808311613e3c57829003601f168201915b5050505050908060020160009054906101000a900460ff16905083565b600082118015613e8857506005548211155b613efa576040517f08c379a00000000000000000000000000000000000000000000000000000000081526004018080602001828103825260148152602001807f557365722073686f756c642062652076616c696400000000000000000000000081525060200191505060405180910390fd5b600081118015613f0c57506004548111155b613f7e576040517f08c379a00000000000000000000000000000000000000000000000000000000081526004018080602001828103825260158152602001807f4d6f7669652073686f756c642062652076616c6964000000000000000000000081525060200191505060405180910390fd5b600080600190505b6006548111613fdf5783600d600083815260200190815260200160002060010154148015613fc9575082600d600083815260200190815260200160002060020154145b15613fd2578091505b8080600101915050613f86565b50613fe86151c6565b600d60008381526020019081526020016000206040518060e00160405290816000820154815260200160018201548152602001600282015481526020016003820154815260200160048201548152602001600582015481526020016006820160009054906101000a900460ff1615151515815250509050600115158160c00151151514156140c1576040517f08c379a000000000000000000000000000000000000000000000000000000000815260040180806020018281038252602281526020018061537f6022913960400191505060405180910390fd5b60018160c001901515908115158152505080600d6000848152602001908152602001600020600082015181600001556020820151816001015560408201518160020155606082015181600301556080820151816004015560a0820151816005015560c08201518160060160006101000a81548160ff0219169083151502179055509050507f161723eb195587bcb0d94054c7a343c48d9fbaef4db573810c57304dd60a05d482826020015183604001518460800151600160405180868152602001858152602001848152602001838152602001821515151581526020019550505050505060405180910390a150505050565b600e6020528060005260406000206000915090508060000154908060010154908060020154908060030154908060040154905085565b6000835111614260576040517f08c379a00000000000000000000000000000000000000000000000000000000081526004018080602001828103825260108152602001807f4e616d652069732072657175697265640000000000000000000000000000000081525060200191505060405180910390fd5b60008251116142d7576040517f08c379a00000000000000000000000000000000000000000000000000000000081526004018080602001828103825260118152602001807f456d61696c20697320726571756972656400000000000000000000000000000081525060200191505060405180910390fd5b600081511161434e576040517f08c379a00000000000000000000000000000000000000000000000000000000081526004018080602001828103825260148152602001807f50617373776f726420697320726571756972656400000000000000000000000081525060200191505060405180910390fd5b600080600190505b6005548111614490578480519060200120600c600083815260200190815260200160002060010160405180828054600181600116156101000203166002900480156143d85780601f106143b65761010080835404028352918201916143d8565b820191906000526020600020905b8154815290600101906020018083116143c4575b5050915050604051809103902014801561447557508380519060200120600c600083815260200190815260200160002060020160405180828054600181600116156101000203166002900480156144665780601f10614444576101008083540402835291820191614466565b820191906000526020600020905b815481529060010190602001808311614452575b50509150506040518091039020145b156144835781806001019250505b8080600101915050614356565b5060008114614507576040517f08c379a00000000000000000000000000000000000000000000000000000000081526004018080602001828103825260138152602001807f5573657220616c7265616479206578697374730000000000000000000000000081525060200191505060405180910390fd5b6005600081548092919060010191905055506040518060800160405280600554815260200185815260200184815260200183815250600c60006005548152602001908152602001600020600082015181600001556020820151816001019080519060200190614577929190615146565b506040820151816002019080519060200190614594929190615146565b5060608201518160030190805190602001906145b1929190615146565b509050507fba5cf39d07b944d1d80f0dca8de1cb61c8962e562c40e7ae80416a42d44ca69060055485858560405180858152602001806020018060200180602001848103845287818151815260200191508051906020019080838360005b8381101561462a57808201518184015260208101905061460f565b50505050905090810190601f1680156146575780820380516001836020036101000a031916815260200191505b50848103835286818151815260200191508051906020019080838360005b83811015614690578082015181840152602081019050614675565b50505050905090810190601f1680156146bd5780820380516001836020036101000a031916815260200191505b50848103825285818151815260200191508051906020019080838360005b838110156146f65780820151818401526020810190506146db565b50505050905090810190601f1680156147235780820380516001836020036101000a031916815260200191505b5097505050505050505060405180910390a150505050565b600f602052806000526040600020600091509050806000015490806001015490806002015490806003015490806004018054600181600116156101000203166002900480601f0160208091040260200160405190810160405280929190818152602001828054600181600116156101000203166002900480156147ff5780601f106147d4576101008083540402835291602001916147ff565b820191906000526020600020905b8154815290600101906020018083116147e257829003601f168201915b5050505050905085565b60035481565b60008511801561482157506005548511155b614893576040517f08c379a00000000000000000000000000000000000000000000000000000000081526004018080602001828103825260148152602001807f557365722073686f756c642062652076616c696400000000000000000000000081525060200191505060405180910390fd5b6000841180156148a557506004548411155b614917576040517f08c379a00000000000000000000000000000000000000000000000000000000081526004018080602001828103825260158152602001807f4d6f7669652073686f756c642062652076616c6964000000000000000000000081525060200191505060405180910390fd5b60008311801561492957506003548311155b61499b576040517f08c379a000000000000000000000000000000000000000000000000000000000815260040180806020018281038252601b8152602001807f43696e656d612048616c6c2073686f756c642062652076616c6964000000000081525060200191505060405180910390fd5b6149a36150ff565b600b6000868152602001908152602001600020604051806101000160405290816000820154815260200160018201548152602001600282018054600181600116156101000203166002900480601f016020809104026020016040519081016040528092919081815260200182805460018160011615610100020316600290048015614a6f5780601f10614a4457610100808354040283529160200191614a6f565b820191906000526020600020905b815481529060010190602001808311614a5257829003601f168201915b50505050508152602001600382015481526020016004820154815260200160058201548152602001600682015481526020016007820160009054906101000a900460ff1615151515815250509050600015158160e0015115151415614b3c576040517f08c379a00000000000000000000000000000000000000000000000000000000081526004018080602001828103825260198152602001807f4d6f766965207374617475732069732020696e6163746976650000000000000081525060200191505060405180910390fd5b60006706f05b59d3b20000905080341015614ba2576040517f08c379a00000000000000000000000000000000000000000000000000000000081526004018080602001828103825260288152602001806153576028913960400191505060405180910390fd5b600660008154809291906001019190505550600160009054906101000a900473ffffffffffffffffffffffffffffffffffffffff1673ffffffffffffffffffffffffffffffffffffffff166108fc349081150290604051600060405180830381858888f19350505050158015614c1c573d6000803e3d6000fd5b506040518060e00160405280600654815260200188815260200187815260200186815260200185815260200184815260200160001515815250600d60006006548152602001908152602001600020600082015181600001556020820151816001015560408201518160020155606082015181600301556080820151816004015560a0820151816005015560c08201518160060160006101000a81548160ff0219169083151502179055509050507f89c2b4af0c2d71453bd0dc7d7bda3bef289d030c36b5ed116c4e61c5da70486160065488888888886000604051808881526020018781526020018681526020018581526020018481526020018381526020018215151515815260200197505050505050505060405180910390a150505050505050565b60008054600181600116156101000203166002900480601f016020809104026020016040519081016040528092919081815260200182805460018160011615610100020316600290048015614dd65780601f10614dab57610100808354040283529160200191614dd6565b820191906000526020600020905b815481529060010190602001808311614db957829003601f168201915b505050505081565b600081118015614df057506002548111155b614e62576040517f08c379a00000000000000000000000000000000000000000000000000000000081526004018080602001828103825260188152602001807f4c6f636174696f6e2073686f756c642062652076616c6964000000000000000081525060200191505060405180910390fd5b614e6a61525e565b6009600083815260200190815260200160002060405180606001604052908160008201548152602001600182018054600181600116156101000203166002900480601f016020809104026020016040519081016040528092919081815260200182805460018160011615610100020316600290048015614f2b5780601f10614f0057610100808354040283529160200191614f2b565b820191906000526020600020905b815481529060010190602001808311614f0e57829003601f168201915b505050505081526020016002820160009054906101000a900460ff161515151581525050905060001515816040015115151415614fd0576040517f08c379a000000000000000000000000000000000000000000000000000000000815260040180806020018281038252601c8152602001807f4c6f636174696f6e20697320616c726561647920696e6163746976650000000081525060200191505060405180910390fd5b6000816040019015159081151581525050806009600084815260200190815260200160002060008201518160000155602082015181600101908051906020019061501b929190615146565b5060408201518160020160006101000a81548160ff0219169083151502179055509050507f6a729a1db854cff880083b4e1c63a9969e8d150d36446d307d81175ab99bdd82816000015182602001518360400151604051808481526020018060200183151515158152602001828103825284818151815260200191508051906020019080838360005b838110156150bf5780820151818401526020810190506150a4565b50505050905090810190601f1680156150ec5780820380516001836020036101000a031916815260200191505b5094505050505060405180910390a15050565b604051806101000160405280600081526020016000815260200160608152602001600081526020016000815260200160008152602001600081526020016000151581525090565b828054600181600116156101000203166002900490600052602060002090601f016020900481019282601f1061518757805160ff19168380011785556151b5565b828001600101855582156151b5579182015b828111156151b4578251825591602001919060010190615199565b5b5090506151c29190615281565b5090565b6040518060e001604052806000815260200160008152602001600081526020016000815260200160008152602001600081526020016000151581525090565b6040518060a0016040528060008152602001600081526020016000815260200160008152602001600081525090565b60405180608001604052806000815260200160008152602001606081526020016000151581525090565b604051806060016040528060008152602001606081526020016000151581525090565b6152a391905b8082111561529f576000816000905550600101615287565b5090565b9056fe4c6f636174696f6e20776974682073616d65206e616d6520616c726561647920657869737443696e656d612048616c6c732073746174757320697320616c726561647920696e6163746976654d6f76696520776974682073616d65202064657461696c7320616c726564792065786973747343696e656d612048616c6c20776974682073616d65206e616d6520616c726561647920657869737420696e2074686520676976656e204c6f636174696f6e5061796d656e742073686f756c6420626520656e6f75676820692e652e20302e35204554484552214d6f76696520626f6f6b696e6720697320616c72656164792063616e63656c6c6564a265627a7a723158204aa385873759365b5ce50022177e78ab1e5033c20de12736784e5cfb16c0cefd64736f6c63430005100032",
  "source": "pragma solidity ^0.5.0;\r\n\r\ncontract MovieReview {\r\n    \r\n    string public companyName;\r\n    address payable public owner;\r\n    uint public locationNumber = 0;\r\n    uint public cinemaHallNumber = 0;\r\n    uint public movieNumber = 0;\r\n    uint public userNumber = 0;\r\n    uint public bookingNumber = 0;\r\n    uint public checkInCheckOutNumber = 0;\r\n    uint public reviewNumber = 0;\r\n    \r\n    struct Location {\r\n        uint id;\r\n        string name;\r\n        bool active;\r\n    }\r\n\r\n    struct CinemaHall {\r\n        uint id;\r\n        uint locationId;\r\n        string name;\r\n        bool active;\r\n    }\r\n\r\n    struct Movie {\r\n        uint id;\r\n        uint cinemaHallId;\r\n        string name;\r\n        uint startDate;\r\n        uint endDate;\r\n        uint startTime;\r\n        uint totalTime;\r\n        bool active;\r\n    }\r\n\r\n    struct UserDetail {\r\n        uint id;\r\n        string name;\r\n        string email;\r\n        string password;\r\n    }\r\n\r\n    struct MovieBooking {\r\n        uint bookingId;\r\n        uint userId;\r\n        uint movieId;\r\n        uint cinemaHallID;\r\n        uint date;\r\n        uint startTime;\r\n        bool cancelled;\r\n    }\r\n\r\n    struct UserCheckInCheckout {\r\n        uint cid;\r\n        uint userId;\r\n        uint movieId;\r\n        uint checkInTime;\r\n        uint checkOutTime;\r\n\r\n    }\r\n\r\n    struct Review {\r\n        uint reviewId;\r\n        uint userId;\r\n        uint movieId;\r\n        uint rating;\r\n        string review;\r\n    }\r\n\r\n    mapping(uint => Location) public locations;\r\n    mapping(uint => CinemaHall) public cinemaHalls;\r\n    mapping(uint => Movie) public movies;\r\n    mapping(uint => UserDetail) public userDetails;\r\n    mapping(uint => MovieBooking) public movieBookings;\r\n    mapping(uint => UserCheckInCheckout) public userCheckInCheckouts;\r\n    mapping(uint => Review) public reviews;\r\n\r\n    event LocationAdded(\r\n        uint id,\r\n        string name,\r\n        bool active\r\n    );\r\n\r\n    event LocationDeleted(\r\n        uint id,\r\n        string name,\r\n        bool active\r\n    );\r\n\r\n    event CinemaHallAdded(\r\n        uint id,\r\n        uint locationId,\r\n        string name,\r\n        bool active\r\n    );\r\n\r\n    event CinemaHallDeleted(\r\n        uint id,\r\n        uint locationId,\r\n        string name,\r\n        bool active\r\n    );\r\n\r\n    event MovieAdded(\r\n        uint id,\r\n        uint cinemaHallId,\r\n        string name,\r\n        uint startDate,\r\n        uint endDate,\r\n        uint startTime,\r\n        uint totalTime,\r\n        bool active\r\n    );\r\n\r\n    event MovieDeleted(\r\n        uint id,\r\n        uint cinemaHallId,\r\n        string name,\r\n        uint startDate,\r\n        uint endDate,\r\n        uint startTime,\r\n        uint totalTime,\r\n        bool active\r\n    );\r\n\r\n    event MovieUpdated(\r\n        uint id,\r\n        uint cinemaHallId,\r\n        string name,\r\n        uint startDate,\r\n        uint endDate,\r\n        uint startTime,\r\n        uint totalTime,\r\n        bool active\r\n    );\r\n\r\n    event NewUserAdded(\r\n        uint id,\r\n        string name,\r\n        string email,\r\n        string password\r\n    );\r\n\r\n    event MovieBooked(\r\n        uint bookingId,\r\n        uint userId,\r\n        uint movieId,\r\n        uint cinemaHallID,\r\n        uint date,\r\n        uint startTime,\r\n        bool cancelled\r\n    );\r\n\r\n    event MovieBookingCancelled(\r\n        uint bookingId,\r\n        uint userId,\r\n        uint movieId,\r\n        uint date,\r\n        bool cancelled\r\n    );\r\n\r\n    event CheckInDone(\r\n        uint cid,\r\n        uint userId,\r\n        uint movieId,\r\n        uint checkInTime\r\n    );\r\n\r\n    event CheckOutDone(\r\n        uint cid,\r\n        uint userId,\r\n        uint movieId,\r\n        uint checkInTime,\r\n        uint checkOutTime\r\n    );\r\n\r\n    event ReviewAdded(\r\n        uint reviewId,\r\n        uint userId,\r\n        uint movieId,\r\n        uint rating,\r\n        string review\r\n    );\r\n    \r\n    constructor() public {\r\n        companyName = \"CinePlaza Movies\";\r\n        owner = msg.sender;\r\n    }\r\n\r\n    function addLocation(string memory _locationName) public {\r\n        require(bytes(_locationName).length > 0, \"Location's name is required\");\r\n        //require(msg.sender == owner, \"Only owner can add location\");\r\n\r\n        uint256 count;\r\n        for (uint256 i = 1; i <= locationNumber; i++) {\r\n            if(keccak256(bytes(locations[i].name)) == keccak256(bytes(_locationName)))\r\n            {\r\n                count++;\r\n            }\r\n        }\r\n        require(count == 0, \"Location with same name already exist\");\r\n\r\n        locationNumber++;\r\n        locations[locationNumber] = Location(locationNumber, _locationName, true);\r\n        emit LocationAdded(locationNumber, _locationName, true);\r\n    }\r\n    \r\n    function deleteLocation(uint _id) public {\r\n        require(_id > 0 && _id <= locationNumber, 'Location should be valid');\r\n        Location memory _location = locations[_id];\r\n        require(_location.active != false, 'Location is already inactive');\r\n        //require(msg.sender == owner, \"Only owner can delete location\");\r\n\r\n        _location.active = false;\r\n        locations[_id] = _location;\r\n\r\n        emit LocationDeleted(_location.id, _location.name, _location.active);\r\n    }\r\n\r\n\r\n    function addCinemaHall(string memory _name, uint _locationID ) public {\r\n        require(bytes(_name).length > 0, \"Cinema Hall's name is required\");\r\n        //require(msg.sender == owner, \"Only owner can add cinema hall\");\r\n        require(_locationID > 0 && _locationID <= locationNumber, 'Location should be valid');\r\n        Location memory _location = locations[_locationID];\r\n        require(_location.active != false, 'Location status is inactive');\r\n\r\n        uint256 count;\r\n        for (uint256 i = 1; i <= cinemaHallNumber; i++) {\r\n            if(keccak256(bytes(cinemaHalls[i].name)) == keccak256(bytes(_name)) && cinemaHalls[i].locationId == _locationID)\r\n            {\r\n                count++;\r\n            }\r\n        }\r\n        require(count == 0, \"Cinema Hall with same name already exist in the given Location\");\r\n\r\n        cinemaHallNumber++;\r\n        cinemaHalls[cinemaHallNumber] = CinemaHall(cinemaHallNumber, _locationID, _name, true);\r\n        emit CinemaHallAdded(cinemaHallNumber, _locationID, _name, true);\r\n    }\r\n\r\n    function deleteCinemaHall(uint _id) public {\r\n        require(_id > 0 && _id <= cinemaHallNumber, 'Cinema Hall should be valid');\r\n        CinemaHall memory _cinemaHall = cinemaHalls[_id];\r\n        require(_cinemaHall.active != false, 'Cinema Halls status is already inactive');\r\n        //require(msg.sender == owner, \"Only owner can delete cinema hall\");\r\n\r\n        _cinemaHall.active = false;\r\n        cinemaHalls[_id] = _cinemaHall;\r\n\r\n        emit CinemaHallDeleted(_cinemaHall.id, _cinemaHall.locationId, _cinemaHall.name, _cinemaHall.active);\r\n    }\r\n\r\n\r\n    function addMovie(string memory _name, uint _cinemaHallID, uint _startDate, uint _endDate, uint _startTime, uint _totalTime) public {\r\n        require(bytes(_name).length > 0, \"Movie's name is required\");\r\n        //require(msg.sender == owner, \"Only owner can add movie\");\r\n        require(_cinemaHallID > 0 && _cinemaHallID <= cinemaHallNumber, 'Cinema Hall should be valid');\r\n        CinemaHall memory _cinemaHall = cinemaHalls[_cinemaHallID];\r\n        require(_cinemaHall.active != false, 'Cinema Hall status is inactive');\r\n\r\n        uint256 count;\r\n        for (uint256 i = 1; i <= movieNumber; i++) {\r\n            if(keccak256(bytes(movies[i].name)) == keccak256(bytes(_name)) && movies[i].cinemaHallId == _cinemaHallID  && movies[i].startDate == _startDate && movies[i].endDate == _endDate && movies[i].startTime == _startTime && movies[i].active == true )\r\n            {\r\n                count++;\r\n            }\r\n        }\r\n        require(count == 0, \"Movie with same  details alredy exists\");\r\n\r\n        movieNumber++;\r\n        movies[movieNumber] = Movie(movieNumber, _cinemaHallID, _name, _startDate, _endDate, _startTime, _totalTime, true);\r\n        emit MovieAdded(movieNumber, _cinemaHallID, _name, _startDate, _endDate, _startTime, _totalTime, true);\r\n    }\r\n\r\n    function removeMovie(uint _id) public {\r\n        require(_id > 0 && _id <= movieNumber, 'Movie should be valid');\r\n        Movie memory _movie = movies[_id];\r\n        require(_movie.active != false, 'Movie status is already inactive');\r\n        //require(msg.sender == owner, \"Only owner can remove movie\");\r\n\r\n        _movie.active = false;\r\n        movies[_id] = _movie;\r\n\r\n        emit MovieDeleted(_movie.id, _movie.cinemaHallId, _movie.name, _movie.startDate, _movie.endDate, _movie.startTime, _movie.totalTime, _movie.active);\r\n    }\r\n\r\n    function updateMovie(uint _id, uint _startDate, uint _endDate, uint _startTime, uint _totalTime) public {\r\n        require(_id > 0 && _id <= movieNumber, 'Movie should be valid');\r\n        Movie memory _movie = movies[_id];\r\n        require(_movie.active != false, 'Movie status is already inactive');\r\n        //require(msg.sender == owner, \"Only owner can update movie\");\r\n        uint256 count;\r\n        if(movies[_id].startDate == _startDate && movies[_id].endDate == _endDate && movies[_id].startTime == _startTime && movies[_id].active == true )\r\n        {\r\n            count++;\r\n        }\r\n        require(count == 0, \"Movie with same  details alredy exists\");\r\n        _movie.startDate = _startDate;\r\n        _movie.endDate = _endDate;\r\n        _movie.startTime = _startTime;\r\n        _movie.totalTime = _totalTime;\r\n\r\n        movies[_id] = _movie;\r\n        emit MovieUpdated(_movie.id, _movie.cinemaHallId, _movie.name, _movie.startDate, _movie.endDate, _movie.startTime, _movie.totalTime, _movie.active);\r\n    }\r\n\r\n    function signUp(string memory _name, string memory _email, string memory _password) public {\r\n        require(bytes(_name).length > 0, \"Name is required\");\r\n        require(bytes(_email).length > 0, \"Email is required\");\r\n        require(bytes(_password).length > 0, \"Password is required\");\r\n        \r\n        uint256 count;\r\n        for (uint256 i = 1; i <= userNumber; i++) {\r\n            if(keccak256(bytes(userDetails[i].name)) == keccak256(bytes(_name)) && keccak256(bytes(userDetails[i].email)) == keccak256(bytes(_email)))\r\n            {\r\n                count++;\r\n            }\r\n        }\r\n        require(count == 0, \"User already exists\");\r\n\r\n        userNumber++;\r\n        userDetails[userNumber] = UserDetail(userNumber, _name, _email, _password);\r\n        emit NewUserAdded(userNumber, _name, _email, _password);\r\n    }\r\n\r\n\r\n    function bookMovieTicket(uint _userId, uint _movieId, uint _cinemaHallId, uint _date, uint _time) public payable {\r\n        require(_userId > 0 && _userId <= userNumber, 'User should be valid');\r\n        require(_movieId > 0 && _movieId <= movieNumber, 'Movie should be valid');\r\n        require(_cinemaHallId > 0 && _cinemaHallId <= cinemaHallNumber, 'Cinema Hall should be valid');\r\n        \r\n        Movie memory _movie = movies[_movieId];\r\n        require(_movie.active != false, 'Movie status is  inactive');\r\n        uint value = 500000000000000000;\r\n        require(msg.value >= value, \"Payment should be enough i.e. 0.5 ETHER!\");\r\n        bookingNumber++;\r\n        owner.transfer(msg.value);\r\n        movieBookings[bookingNumber] = MovieBooking(bookingNumber, _userId, _movieId, _cinemaHallId, _date, _time, false);\r\n        emit MovieBooked(bookingNumber, _userId, _movieId, _cinemaHallId, _date, _time, false);\r\n    }\r\n\r\n    function cancelMovieTicket(uint _userId, uint _movieId) public payable {\r\n        require(_userId > 0 && _userId <= userNumber, 'User should be valid');\r\n        require(_movieId > 0 && _movieId <= movieNumber, 'Movie should be valid');\r\n        uint256 bookingId;\r\n        for (uint256 i = 1; i <= bookingNumber; i++) {\r\n            if(movieBookings[i].userId == _userId && movieBookings[i].movieId == _movieId)\r\n            {\r\n                bookingId = i;\r\n            }\r\n        }\r\n\r\n        MovieBooking memory _movieBooking = movieBookings[bookingId];\r\n        require(_movieBooking.cancelled != true, 'Movie booking is already cancelled');\r\n\r\n        _movieBooking.cancelled = true;\r\n        movieBookings[bookingId] = _movieBooking;\r\n\r\n        //address payable customer = msg.sender;\r\n        //uint value = 500000000000000000;\r\n        //customer.transfer(value);\r\n        emit MovieBookingCancelled(bookingId, _movieBooking.userId, _movieBooking.movieId, _movieBooking.date,  true);\r\n    }\r\n\r\n    function checkIn(uint _userId, uint _movieId, uint _checkInTime) public {\r\n        require(_userId > 0 && _userId <= userNumber, 'User should be valid');\r\n        require(_movieId > 0 && _movieId <= movieNumber, 'Movie should be valid');\r\n        Movie memory _movie = movies[_movieId];\r\n        require(_movie.active != false, 'Movie status is  inactive');\r\n        uint256 bookingId;\r\n        for (uint256 i = 1; i <= bookingNumber; i++) {\r\n            if(movieBookings[i].userId == _userId && movieBookings[i].movieId == _movieId && movieBookings[i].cancelled == false)\r\n            {\r\n                bookingId = i;\r\n            }\r\n        }\r\n        MovieBooking memory _movieBooking = movieBookings[bookingId];\r\n        require(_movieBooking.cancelled != true, 'Movie booking is already cancelled');\r\n\r\n        uint256 count;\r\n        for (uint256 i = 1; i <= checkInCheckOutNumber; i++) {\r\n            if(userCheckInCheckouts[i].userId == _userId && userCheckInCheckouts[i].movieId == _movieId)\r\n            {\r\n                count = i;\r\n            }\r\n        }\r\n        require(count == 0, 'User has already checked in');\r\n\r\n        checkInCheckOutNumber++;\r\n        userCheckInCheckouts[checkInCheckOutNumber] = UserCheckInCheckout(checkInCheckOutNumber, _userId, _movieId, _checkInTime, 0);\r\n        emit CheckInDone(checkInCheckOutNumber, _userId, _movieId, _checkInTime);\r\n    }\r\n\r\n    function checkOut(uint _userId, uint _movieId, uint _checkOutTime, string memory _review) public {\r\n        require(_userId > 0 && _userId <= userNumber, 'User should be valid');\r\n        require(_movieId > 0 && _movieId <= movieNumber, 'Movie should be valid');\r\n        Movie memory _movie = movies[_movieId];\r\n        require(_movie.active != false, 'Movie status is  inactive');\r\n        uint256 bookingId;\r\n        for (uint256 i = 1; i <= bookingNumber; i++) {\r\n            if(movieBookings[i].userId == _userId && movieBookings[i].movieId == _movieId)\r\n            {\r\n                bookingId = i;\r\n            }\r\n        }\r\n        MovieBooking memory _movieBooking = movieBookings[bookingId];\r\n        require(_movieBooking.cancelled != true, 'Movie booking is already cancelled');\r\n\r\n        uint256 cid = 0;\r\n        for (uint256 i = 1; i <= checkInCheckOutNumber; i++) {\r\n            if(userCheckInCheckouts[i].userId == _userId && userCheckInCheckouts[i].movieId == _movieId)\r\n            {\r\n                cid = i;\r\n            }\r\n        }\r\n        require(cid != 0, 'User has not checked in');\r\n        require(userCheckInCheckouts[cid].checkOutTime == 0, 'User has already checked out');\r\n        UserCheckInCheckout memory _checkInCheckout = userCheckInCheckouts[cid];\r\n        _checkInCheckout.checkOutTime = _checkOutTime;\r\n\r\n        userCheckInCheckouts[cid] = _checkInCheckout;\r\n        uint checkInTime = _checkInCheckout.checkInTime;\r\n\r\n        calculateRatingBasedOnTime(_userId, _movieId, checkInTime, _checkOutTime,  _movie.totalTime, _review);\r\n        emit CheckOutDone(cid, _userId, _movieId, checkInTime, _checkOutTime);\r\n    }\r\n\r\n    function calculateRatingBasedOnTime( uint _userId, uint _movieId, uint _checkInTime, uint _checkOutTime, uint movieLength, string memory _review) public {\r\n        reviewNumber++;\r\n        uint rating;\r\n        uint time_in_min = (_checkOutTime-_checkInTime)/(1000*60);\r\n        rating = (time_in_min * 10)/movieLength;\r\n        reviews[reviewNumber] = Review(reviewNumber, _userId, _movieId, rating, _review);\r\n        emit ReviewAdded(reviewNumber, _userId, _movieId, rating, _review);\r\n    }\r\n}",
  "sourcePath": "D:\\eece571g\\finalproject\\MovieReviewsBlockchain\\src\\contracts\\MovieReview.sol",
  "compiler": {
    "name": "solc",
    "version": "0.5.16+commit.9c3226ce.Emscripten.clang"
  },
  "schemaVersion": "3.0.23",
  "updatedAt": "2020-03-22T23:11:33.763Z",
  "networkType": "ethereum",
  "devdoc": {
    "methods": {}
  },
  "userdoc": {
    "methods": {}
  }
}